:020000040800F2
:10000000283A00204D01000881370008F932000825
:1000100000000000000000000000000000000000E0
:10002000000000000000000000000000B73C0008D5
:1000300000000000000000000B010008B93C0008AF
:100040005F0100085F0100085F0100085F01000810
:100050005F0100085F0100085F010008410B000814
:100060005F0100085F0100085F0100085F010008F0
:100070005F0100085F0100085F0100085F010008E0
:100080005F010008A93D00085F0100085F0100084A
:100090005F0100085F0100085F0100085F010008C0
:1000A0005F0100085F0100085F0100085F010008B0
:1000B0005F0100085F0100085F010008414C000873
:1000C0000348854600F0FAFB00480047B97A00086B
:1000D000283A0020084B19680868203080F3098806
:1000E000022080F31488BFF36F8F3FBCAE4608BC7C
:1000F00004BC62B618470000B0010020EFF3108086
:1001000072B6704780F310887047EFF309800E4B8A
:100110001A6820381060F0C044464D4656465F4687
:10012000F0C008B572B609F001FE62B60CBC1168E9
:1001300008681030F0C8A046A946B246BB4680F316
:1001400009882038F0C81847B001002004488047CB
:1001500004480047FEE7FEE7FEE7FEE7FEE7FEE7AE
:100160004D3D0008C100000830B50B460146002097
:100170002022012409E00D46D5409D4205D31D46AD
:100180009540491B2546954040191546521E002DA5
:10019000F1DC30BD70B500242546002801DA0124C9
:1001A0004042002901DA01254942FFF7DDFFAC4258
:1001B00000D04042002C00D0494270BD10B5202A2A
:1001C00004DB0846203AD040002110BD0B46D34046
:1001D000D0402024A21A91400843194610BD0000C7
:1001E0000549064A08685043054A801808604008D7
:1001F0007047014908607047EC0100206D4EC64110
:100200003930000003460B439B0703D009E008C9BF
:10021000121F08C0042AFAD203E00B780370401CB6
:10022000491C521EF9D27047D2B201E00270401C44
:10023000491EFBD270470022F6E710B513460A4666
:1002400004461946FFF7F0FF204610BD30B50546BD
:100250002A460B4610781C78521C5B1C002801D0E3
:10026000A042F7D0002C03D0002802D06D1CEFE78D
:10027000284630BD10B5044605E00B780370401CDD
:10028000002B00D0491C521EF7D2204610BD421C44
:100290000178401C0029FBD1801A704710B500225C
:1002A00000E0521C835C8C5CA34201D1002BF8D18E
:1002B000D8B2E1B2401A10BD03460A780270401C61
:1002C000491C002AF9D11846704730B50546002070
:1002D000034600E05B1C934205D2EC5CC85C201A2C
:1002E00001D1002CF6D130BD0321001D401E037842
:1002F00012021A43491EF9D51046704770B50646DA
:1003000004F058FD046805460A220021304600F03A
:100310003DFA2C6070BD0000F0B507460846584015
:1003200087B0C00F049048000E46590040084908A5
:10033000BC1A884105D2384631461E4617460B4640
:1003400002465800400810434CD0300D0390400541
:100350005900400D490D0590401A0290402872DA6C
:1003600018030121000B090508430190049800922D
:10037000002805D001995242002088410092019046
:10038000029840210A1A0199009800F0DBF905460D
:100390000C466B4607CB00F0E5F9C0197141039A92
:1003A0000E0D0023D71756401A467A40164344D004
:1003B000049A002A2DD0029A012A039A15DC12050C
:1003C000C01A914101263605001C7141D20F059ECD
:1003D000D2070093019202962A46234600F01BFAA8
:1003E00007B0F0BD38463146FAE71605224A0F46F7
:1003F000B218C01AB74101210905001C4F4100186D
:100400007F41114618187941E20F10436D1964417C
:1004100013E0E2076D0815436408C2071443039A0A
:1004200001261205C01A91413605001C7141CE0704
:10043000400830434908C01851412A46234600F07D
:10044000DDF9CDE7FFE7049801224000C117121A39
:1004500000238B4104983146C417381AA141EEE7B6
:1004600030B40124E407634030BC55E730B40124C4
:10047000E407614030BC4FE70000E0FFF0B51FB477
:1004800088B00B990998002448400999C00F490089
:1004900049080991C0070B990090490049080B9140
:1004A00009990898A64608431CD00B990A98084356
:1004B00018D0099801244000420D4800410D0998C8
:1004C00024050003000B204309900B980003000B48
:1004D00020430B9050181C494018002201901446EC
:1004E000104605E0002001460DB0F0BD032801DAFA
:1004F000034600E003239C46C11A0AAE0AE05F00EF
:1005000008ADED5B4F00F75B7D430027AA187C41E7
:10051000491C5B1E6145F2DD410004AB5A522104C7
:10052000120C0A43240C401C0828DFDB01980290BF
:100530000099704601910090059B049A07990698CE
:1005400000F069F9D0E700000DFCFFFFF0B50C46A4
:100550005C4085B0E40FE40703944C000026640877
:1005600059009446490802460296224321D0624629
:100570000A431ED06200570D4A000E032303550D97
:10058000012402462C492405781B1B0B360B40180E
:1005900023432643614600901C46501AB44103D3BE
:1005A0000098401C009002E0921800985B410028DF
:1005B00003DA0020014605B0F0BD00200121090545
:1005C0000746864611E064461D46141BB54106D316
:1005D0006546521BB341744607430C43A646CD07FC
:1005E00040084908284392185B4105460D43EAD16B
:1005F0001046184313D060461946504071400843D6
:1006000006D06046101AB34106D20122002306E04C
:1006100000220123DB0702E00122D243531000989D
:1006200074460105381C6141029C039D0019694113
:1006300000F0E4F8BFE70000FD0300000EB5054937
:100640000291002100910A460B46019100F0E3F867
:1006500003B000BD330400004A0009030123090B65
:100660001B051943094B10B5520D9A4201DA0020BF
:1006700010BD064B34339A4203DC9A1AFFF79EFDF5
:1006800010BD03495118884010BD0000FF03000051
:10069000CDFBFFFF10B5002904DB0124E407404235
:1006A0008C412146002B04DB1C460123DB07524210
:1006B000A3418B4200D1824210BD000010B5002939
:1006C00004DB0124E40740428C412146002B04DB7B
:1006D0001C460123DB075242A341994200D19042BC
:1006E00010BD0000F0B51FB40646002082B00546DC
:1006F0004024019100901BE0019922460F463046AC
:10070000FFF75CFD049A059B801A994110D31046AF
:100710001946224600F016F8361A8F4101972246F4
:1007200001200021009F00F00DF838184D41009085
:100730002046641E0028DFDC019B009829463246D3
:1007400007B0F0BD10B5202A04DB0146203A9140E5
:10075000002010BD914020239C1A0346E34019431A
:10076000904010BD10B5202A06DBCB170846203A72
:100770001041C1170B4306E00B461341D040202423
:10078000A21A91400843194610BD0000F7B5009C1D
:100790000F4600262578641C002D05D000F0A0F837
:1007A0000068405DC007F5D12B2D02D02D2D18D04B
:1007B000641E39462046029A00F096F8002F04D0B5
:1007C0003968A14201D100993960710502240029DC
:1007D0000BDA4042002803DD04F0ECFA0460A007C5
:1007E000FEBD012080020643E3E70028F8DA04F0AA
:1007F000E1FA04600048FEBDFFFFFF7F10B5002B4B
:1008000008DA0024401C614192185B411A4301D16F
:100810004008400010BDF0B51FB482B005460C0082
:1008200003D0084604F0A2FA02E004F09FFA203058
:100830000246009021462846FFF784FF049B059A54
:1008400004460F4618431143084314D0184610437A
:100850001BD0009840210A1A18460599FFF7AEFCF4
:1008600005460E46009A05990498FFF76BFF08436A
:1008700005D0012004E02046394607B0F0BD002035
:10088000C11705430E432C43374300990E98630567
:10089000401A7905E40A00220C43FD0A0A3002D509
:1008A00000200146E9E70105101969410C9C0D9DE6
:1008B00000196941FFF7A2FFDFE70000064C0125A0
:1008C000064E05E0E36807CC2B430C3C98471034F8
:1008D000B442F7D3FFF7F8FBE0B4000800B5000816
:1008E00000487047B4B40008F7B582B0029C0027F6
:1008F0002078641C15460197302802D0002D15D0B1
:1009000015E020780127641C782804D0582802D0EC
:10091000002D09D00BE0002D01D0102D07D10027AC
:1009200010252078641C02E0082500E00A25002636
:10093000009610E00099012769430818020C294627
:1009400080B2714300908E183804864201D3012092
:1009500001902078641C294600F019F80028E9DA93
:100960000398002805D0002F01D0641E00E0029CEF
:1009700004600198002806D004F01CFA02210160EE
:10098000C81E05B0F0BD009930040843F9E73A28C5
:1009900000D23038202302469A43412A01D3104620
:1009A0003738884201D30020C043704770B58C1897
:1009B0000578401C6B075B0F01D10378401C2A119E
:1009C00006D10278401C03E006780E70401C491CDA
:1009D0005B1EF9D12B0705D40023521E0DD40B70DA
:1009E000491CFAE70378401CCB1A921C03E01D78DF
:1009F0000D70491C5B1C521EF9D5A142D8D30020B2
:100A000070BD70B5044600688168490720D58168CB
:100A100010254907002905DA8168890702D4816811
:100A20002943816000F018FC06460DE000F014FC3C
:100A3000801B022808D9606C28436064A06C0121E7
:100A40000843A064084670BD206880684007EDD464
:100A5000002070BDF8B50446006881688907890FD9
:100A6000012928D10168C90702D1C168090422D52A
:100A70008168052211401025012601290FD18168C6
:100A800002221143816021680320086000F0E4FB2A
:100A900007460CE000F0E0FBC01B022807D9606CA1
:100AA00028436064A06C3043A0640120F8BD206836
:100AB0008068C007EED10020F8BD0000F8B50446FC
:100AC00000200090206881688907890F012905D1DD
:100AD0000168C9072CD1C168090429D48168154A65
:100AE000102611400125002915D181682943816014
:100AF000124811490068FFF737FB00E0401E0090E4
:100B00000028FBD100F0A8FB07460CE000F0A4FB96
:100B1000C01B022807D9606C30436064A06C284376
:100B2000A0640120F8BD20680068C043C007EDD173
:100B30000020F8BD1700008040420F000000002098
:100B400010B5102000F0C6FA10BD00B5002200F06C
:100B500001F800BD30B50E4B05465C7A0120012C32
:100B600015D8587A00241C54587A8000C018456063
:100B70005D7A184608302A54587A421C5A7230302E
:100B800008703A2048702F208870CC70002030BD4B
:100B9000FC1A0020F8B50025044640340095227860
:100BA000012A3BD00123237002689668760776D429
:100BB0003F4F4E68BE4254D0966A0F78BB401E43EA
:100BC00096620123826B1B079A421FD0012A1DD017
:100BD000022A1BD0032A19D0042A17D0052A15D0BF
:100BE000062A13D0072A11D002688B685669760747
:100BF000760FB3420AD05369DB08DB00536100680B
:100C000042690B7A5B075B0F1A4342610868102840
:100C100006D0112804D0122802D045E00220F8BDE9
:100C2000244B9A68102809D011280AD00120000608
:100C300002439A600868102806D035E00120C005FC
:100C4000F6E701208005F3E71C481B490068FFF721
:100C50008BFA0A21484300E0401E00900028FBD197
:100C600022E0906A0E78B34098439062086810289A
:100C700003D0112801D0122816D10E4A91681028ED
:100C800007D0112808D001200006814391600BE0B5
:100C900005E00120C005F8E701208005F5E7416C7B
:100CA0002022114341640125002020702846F8BD10
:100CB000011000000027014040420F00000000200A
:100CC0000068006C70470000F8B500250446002855
:100CD00003D0606C002802D008E00120F8BD00209D
:100CE000A06440210855204600F0A8F8606C10224E
:100CF000C006002870DB2068816849076CD4616CED
:100D00001301994302231943616481688907890F9C
:100D1000012905D10168C9070FD1C16809040CD4A4
:100D2000C16818239943A3681943C1602068016909
:100D3000636889008908194301612068C1683D4BD7
:100D40001940C160A0698103E069C0030143206AC2
:100D500043031943636B012B02D001231B0300E003
:100D600000231943E36819432369022B09D00023A8
:100D70001943236B666A5B0019430123012E02D0DD
:100D80000AE00423F4E7002827D0606C20263043D3
:100D90006064A06C1843A064A06A0646FF3EC23E91
:100DA00002D0E66A304301432068C6680E43C6603D
:100DB0000126A06B3607B04213D0012811D00228BB
:100DC0000FD003280DD004280BD0052809D0062801
:100DD00007D0072805D010E028E0012000040143D7
:100DE000DAE720684669F608F60046612068466939
:100DF000278F7F077F0F3E4346612068C0680E4EF5
:100E00003040884207D10020A064606C80088000D8
:100E1000401C606408E0606C0221884310436064F9
:100E2000A06C1843A06401252846F8BD606C1043EF
:100E30006064F8E71902FEFFE7FF3F8308B500682A
:100E40000549884207D10548826941150A438261F4
:100E500080690840009008BD002401400010024055
:100E6000F8B504464069274640370D4608280BD0A0
:100E70002068C068C00709D0606C20210843606406
:100E8000002038700120F8BD082600E00C2600F094
:100E9000E3F9009011E0681C0FD0002D05D000F0A0
:100EA000DBF90099401AA84207D9606C0421084375
:100EB0006064002038700320F8BD2068006830426C
:100EC000E9D0606C01214902084360642068C16870
:100ED0000C220905890F00291AD1216A002917D18E
:100EE0000168090714D5816801234907002908DB37
:100EF000416891434160606C190288431843606403
:100F000006E0606C202108436064A06C1843A06474
:100F1000A069002801D1206802600020F8BD00000F
:100F200070B50446216800208968490721D4254608
:100F30004035297801291CD001212970E169012956
:100F400004D02046FFF7BAFD002811D1616C0A4A8F
:100F50001140FF220132114361640021A164297014
:100F600022681C21116021688A6804231A438A6060
:100F700070BD022070BD0000FEF1FFFF70B5054698
:100F8000044640352878012807D001262E702046D7
:100F9000FFF737FD002802D00CE0022070BD20468C
:100FA000FFF758FD002805D1616CFF220132914303
:100FB000314361640021297070BD31B500F04CF9F6
:100FC000009C0546601C00D0641C00F045F9401BE5
:100FD000A042FAD338BD0000F0B58E46002259E099
:100FE000012393409C4671460B4052D00168550046
:100FF0000324AC40A1430160D10889000D182F6A79
:101000005607F10E0F268E40B7432F628168A14329
:10101000816041686546A9434160C168A143C160E0
:1010200094081E49A4006418A16895072E0F0F2587
:10103000B5402F460F400921C906884201D1002141
:1010400014E01749884201D101210FE01549884277
:1010500001D102210AE01449884201D1032105E0AF
:101060001249884201D1042100E00521B140B94272
:101070000FD1A168A943A1600D490C689C430C6085
:101080004C689C434C608C689C438C60CC689C434F
:10109000CC60521C7146D140A2D1F0BD000001408D
:1010A0000004004800080048000C004800100048F8
:1010B00000040140C820FFF780FFBFF34F8F0449B1
:1010C0000248C860BFF34F8F00BFFDE70400FA0578
:1010D00000ED00E010B504494A69024202D04861BF
:1010E000FFF7E8FF10BD000000040140F8B5002242
:1010F00092E001249440A44623407DD04C68022C09
:1011000001D0122C0CD1D408A4002618356A54073B
:10111000E40E0F27A740BD430F69A7402F43376256
:10112000066855000324AC400F79A643BF07BF0FE4
:10113000AF40374307604E68012E05D0022E03D022
:10114000112E01D0122E0ED18668CF68A643AF4073
:101150003743876047686646B7430E79F606F60F51
:1011600096403E434660C668A6438C68AC40344314
:10117000C4604C68E4004ED52A4CA569012635436D
:10118000A561A469950834400094274CAD002F193F
:10119000BD689407240F0F26A640B5430926F6061E
:1011A000B04201D1002614E0204EB04201D1012608
:1011B0000FE01F4EB04201D102260AE01D4EB042A0
:1011C00001D1032605E01C4EB04201D1042600E007
:1011D0000526A6402E43BE60184D2C684E689C43E1
:1011E000F60300D51C432C606C684E689C43B60324
:1011F00000D51C436C6000E00DE0AC684E689C4379
:10120000F60200D51C43AC60EC684E689C43B60205
:1012100000D51C43EC60521C0B681C46D44000D027
:1012200067E7F8BD001002400000014000040048DC
:1012300000080048000C004800100048000401406D
:101240000069084000D001207047002A01D0816168
:1012500070478162704700000148006870470000D5
:10126000D000002070B5040005D025466035687AAE
:10127000002802D006E0012070BD00202872204620
:1012800001F0B2FF24206872206801684908490013
:101290000160204602F07AFE0128EDD0606A002845
:1012A00002D0204602F0D2FD206841680922D20215
:1012B00091434160206881682222914381602068C7
:1012C000816808221143816020680168012211436E
:1012D0000160204602F020FE70BD70B5024640322B
:1012E0005378202B1CD11378012B19D001241470B2
:1012F0002423537003681D68A5431D6003681D689F
:101300002603B5431D6003681D680D431D6000681A
:10131000016821430160202050700020107070BDD2
:10132000022070BD70B5024640325378202B1BD18D
:101330001378012B18D001251570242353700368EE
:101340001C68AC431C6003681C680F263602B4435B
:1013500009022143196000680168294301602020C7
:1013600050700020107070BD022070BD70B5040078
:1013700006D02546403568780026002802D005E0D2
:10138000012070BD2E70204600F082F92420687084
:10139000206801684908490001600F21606809065A
:1013A000884321680861206882680121C9038A4353
:1013B0008260E0680128A06808D0212292021043D0
:1013C00022689060E068022802D005E00843F7E751
:1013D00001202268C0025060206842680F4B1A4307
:1013E00042602068C2688A43C2606169206908431C
:1013F000A169090208432168C860216AE0690843BD
:101400002168086020680168012211430160666458
:10141000202068702663AE70002070BD008000023E
:10142000FFB50446002083B02546403501906A7818
:101430001F46202A7ED122689269D243120479D5B0
:101440002A78012A76D001222A7024226A706064E8
:101450008805800D0290E068012802980BD00521D4
:10146000C902401801218902884321684860FFF7BA
:10147000F3FE06460FE03049F3E7781C0BD0002F4F
:1014800004D0FFF7E9FE801BB84204D92020687021
:101490000020287043E020688169C943890606D589
:1014A0008069C043C00602D56878A028E5D12068CD
:1014B00080693B46C043C00600960ED5002220211D
:1014C000204601F0AFFF002829D121682020C86103
:1014D00068700020287007B0F0BD0022202120464F
:1014E00001F0A0FF00281AD121681020C8612168EE
:1014F0002020C8610198411C01910599884214D1AE
:101500002068416801229203114341603B4600225A
:1015100020212046009601F085FF002802D00320FC
:10152000D9E707E021682020C86101990598814228
:1015300091D3ABE70220CEE700200002FFB50546BD
:1015400004464035687883B0202876D10C9800286E
:1015500074D00D98002871D0287801286DD0012012
:101560002870FFF779FE0746012200901923D10366
:10157000204601F057FF002853D1212068704020F9
:10158000A870002666640C9860620D98608566639A
:101590000E980090019704A90EC9204601F0FAFEAA
:1015A000002804D0606C2E7004286AD039E0608D69
:1015B000FF2805D9FF22228501231B06009606E09D
:1015C000608D20850096208D0123C2B25B062046E7
:1015D000049901F015FF3A4620460E9901F06DFF7F
:1015E000002803D0606C04284BD01AE0606A411CCC
:1015F0006162216800788862608D401E6085208D60
:10160000401E0004000C208524D1608D002821D0CC
:1016100000970022802120460E9B01F003FF002846
:1016200002D0032007B0F0BD608DFF2807D9FF224C
:10163000228501231B06009608E024E021E0608D4E
:1016400020850096208D0123C2B25B0620460499B6
:1016500001F0D6FE608D0028BDD13A4620460E9995
:1016600001F004FF0028BDD120682021C16120685D
:101670004268064B1A4042606970AE702E700020BE
:10168000D0E70120CEE70220CCE7000000E800FE12
:1016900000B500680E4987B0884216D103200002C9
:1016A00000901220012101900320029104910390E7
:1016B00069460848FFF71AFD0748C2690121490534
:1016C0000A43C261C0690840059007B000BD000030
:1016D00000540040000400480010024070B50400AF
:1016E0000FD021681348086021681348086003CCB4
:1016F00041602068083C21688860FFF7ADFD054621
:1017000008E0012070BDFFF7A7FD401B272801D985
:10171000032070BD2068C0680028F4D120680269E9
:10172000E1688A4201D0016101E0044901600020C2
:1017300070BD0000CCCC000055550000AAAA0000E6
:10174000006802490160002070470000AAAA00005A
:1017500002480168491C016070470000D000002069
:1017600010B506480168102211430160002000F006
:1017700007F800F041F8002010BD000000200240F2
:1017800000B5014687B00022112000F061F8112059
:1017900000F054F81348C26910210A43C261C069BD
:1017A0000840059004A9684600F034FF00F054FF9B
:1017B0000D49FEF7D9FC0E490C4A0A600D4A401E3D
:1017C000CA604860002008618860084601F026FC75
:1017D000002802D0012007B000BD054801F039FC07
:1017E000F9E700000010024040420F0000100040E6
:1017F000BC1A0020E703000008B50F4881690122E8
:1018000011438161816911400091C26901040A4359
:10181000C261C0690022084000901146501F00F0CC
:1018200017F803210022481F00F012F803210022BC
:10183000081F00F00DF808BD00100240C106C90ED7
:1018400001208840014908607047000000E100E085
:1018500010B501F097FF10BDBFF34F8F0449034847
:10186000C860BFF34F8F00BFFDE700000400FA051A
:1018700000ED00E010B50C0606D54906490E1C2403
:1018800061430818283004E01C2461430818FF3025
:10189000093099B2002A06D001228272C180190C47
:1018A0000181002010BD002282728180F9E71C2294
:1018B0004A43121810B5FF30FF300230926BC069F6
:1018C00002F071FE10BD1C224A43121810B5FF3001
:1018D000FF32FF30013202309269C06902F0BEFE71
:1018E00010BD0000F0B54A06520E13461C256A438F
:1018F000CC091218002C01D0283201E0FF32093245
:1019000013700346C909FF335170E133197A012975
:101910003DD001211972957A494C002D49495578DD
:1019200037D0002D05681678AC465BD0B600AD5BAD
:101930006F0404D5444F0D403D436746BD530568D1
:101940001678AC46B600AD5B6F0605D53C4F0D4032
:1019500040373D436746BD5315780668AF00F55BD9
:101960000D4039490D43F553364F117830373D401E
:1019700006688900254375521178334A006889004A
:10198000F13A15402543455200201872F0BD02205F
:10199000F0BD002D05681678AC4610D0B600AD5BE2
:1019A0006F0605D50D40264940310D4361468D53E4
:1019B000117800688900234D425A30350EE0B60098
:1019C000AD5B6F0404D50D401F490D4361468D5337
:1019D0001178006889001C4D425AF13D2A4022438B
:1019E0004252D1E7B600AD5B6F0404D5164F0D40EF
:1019F0003D436746BD5305681678AC46B600AD5BFF
:101A00006F0605D50E4F0D4040373D436746BD5329
:101A100015780668AF00F55B0D40094940310D436C
:101A2000F553094F1178F13F3D4006688900254381
:101A300075521178034A890000683032A1E700002E
:101A4000808000008F8F000080C00000F0B54B0642
:101A5000CA095B0E002A04D01C225A4312182832ED
:101A600004E01C224A431218FF3209320024947009
:101A70001370C90951700146FF31E1310B7A012B16
:101A80001AD001230B7253781A4E002B1378046876
:101A900014D09D00635B5F0603D53340164E33437D
:101AA000635303681078134C80001A5A3034224074
:101AB00010246240202414E00220F0BD9D00635BEE
:101AC0005F0403D533400D4E3343635303681078EE
:101AD0000A4C80001A5AF13C22400124240362403F
:101AE00064006240044C403C22431A5200200872B9
:101AF000F0BD00008F8F0000C080000080C000009B
:101B0000F0B54D066D0E1C246C43CE092418002E32
:101B100001D0283401E0FF3409342570C90961700F
:101B20000146FF31E260E131E3708C46097A012918
:101B30000DD0012261460A72E178934B002908D04A
:101B400001291ED002290DD0032923D111E0022042
:101B5000F0BD2278016892008D5A1D40FF35FF3597
:101B6000023504E02278016892008D5A1D408D52A2
:101B700010E02278016892008D5A1D4003235B0219
:101B800006E02278016892008D5A1D4001239B02D5
:101B9000EB188B5226780768B300FD5A7B497C4AC4
:101BA0000D4015433543FD52A37A002B53D02378C3
:101BB000784E0D4007689B003543FD52E388502660
:101BC0005D0803686D00F65AF6182378DF000123DC
:101BD0009B02FB18F552238950265D0803686D00AF
:101BE000F65AF6182378DF005311FB18F552637884
:101BF000002B77D0237807689D007B5B5E0403D5BC
:101C0000654E0B4033437B53237807689D007B5B15
:101C10005E0604D55E4E0B40403633437B5323783B
:101C200005689E00AB5B0B405B490B43AB53574EC3
:101C30002178303633400568890013436B52217890
:101C4000554C00688900F13C234013434352002067
:101C500061460872F0BD6378002BA3881FD05D0831
:101C600003685026F65A6D00F6182378DF0001232A
:101C70009B02FB18F552237807689D007B5B5E068C
:101C800004D50B40424940310B437B532178006817
:101C900089003E4C435A30342340202440E05D0804
:101CA00003685026F65A6D00F6182378DF003B4B88
:101CB000FB18F55203685025ED5A384EEB1825787D
:101CC000B61CED00AD195E19E3683E2B0BD9DD02A1
:101CD0002D0CDB0601D16D1EADB2AB020125ED036B
:101CE0002B4307E01EE0DD032D0CDB0701D06D1C4C
:101CF000ADB2AB023380237807689D007B5B5E0446
:101D000003D50B4024490B437B532178006889009D
:101D1000214C435AF13C23400124240363406400D6
:101D2000634092E7237805689F00EB5B5E0403D570
:101D3000194E0B403343EB53237807689D007B5BC0
:101D40005E0604D5124E0B40403633437B53237856
:101D500005689E00AB5B0B400D4940310B43AB5314
:101D60000D4E2178F13E3340012636037340760054
:101D700073400568890013436B522178034C890036
:101D80000068303460E700008F8900008F8F00000A
:101D9000808000008081000080C0000004040000FA
:101DA000F0B54906490E1C244C432418FF34002585
:101DB00019342CC41C3C03466570FF332170E13399
:101DC000197A012908D0012119726269E1688A42F1
:101DD00004D9521A626103E00220F0BD1146656128
:101DE000A27A002A05D06278002A19D0012A37D0B9
:101DF00059E002685026B65AB6182278D700324AFF
:101E0000BA18B6183E293ED9CA02120CC90637D0F4
:101E100091020122D203114300E09102318042E09D
:101E200002685026B65AB6182278D700264A121FE2
:101E3000BA18B6183E290AD9CA02120CCF0601D127
:101E4000521E92B292020127FF033A4306E0CA03F0
:101E5000120CCF0701D0521C92B29202328009E0DC
:101E600002685026B65AB6182278D700164A121FB2
:101E7000BA18B1526278002ABBD0012A0AD012E007
:101E8000521E92B2C4E7CA03120CC907C5D0521C35
:101E900092B2C2E702685026B65AB6182278D70026
:101EA000094ABA18B15201682078084C80000A5AD1
:101EB000224001242403624064006240044C224317
:101EC0000A521D720020F0BD060400008FBF000002
:101ED00080800000F0B50346FF33E1331A7A012A0F
:101EE0000BD001254A06CC09520E1D72002C06D0DB
:101EF0001C2454432418283406E00220F0BD1C247E
:101F00004C432418FF340934A5702270CD09657044
:101F10000126360310270F4C002A09D04906006815
:101F2000C90D425A002D0CD00B4D2A407A400CE0CE
:101F300000680A4A018811407140794021430180BC
:101F400005E0064D303D2A407240224342520020B7
:101F50001872F0BD80800000BF8F0000BFBF00007E
:101F6000F0B506464806400E1C2141438C19E36338
:101F70000021A26321640121283437466170FF37B4
:101F80002070E137387A012806D03972E568606937
:101F9000A84203D9401B03E00220F0BD0546002003
:101FA0006061A07A00280CD0217830688A00825CB9
:101FB000520662783AD54A4B002A13D0012A2DD016
:101FC00032E0ABB2A2882169306801F0AAFD306826
:101FD0005021095A09182078C2004148001F1018E2
:101FE0000D526AE05022125AC9001018C91841183F
:101FF0003E2D0AD9E802000CEA0601D1401E80B24B
:1020000080020122D203104306E0E803000CEA0735
:1020100001D0401C80B28002088005E05022125A94
:10202000C9001018C918455222892BE0002A02D095
:10203000012A1ED025E05022125AC9001218284841
:10204000001F081811183E2D0AD9E802000CEA06F4
:1020500001D1401E80B280020122D203104306E06B
:10206000E803000CEA0701D0401C80B2800208801F
:1020700007E05022125A1018CA001949091F5118B6
:102080004552E288ABB22169306801F04AFD6078C0
:10209000144A002802D0012807D00EE021783068C9
:1020A0008900435A1340104A05E0217830688900BE
:1020B000435A13400D4A134343522078316880003D
:1020C000084B0A5A30331A4010235A4020235A40F2
:1020D000054B403B1A430A5200203872F0BD000005
:1020E000060400008F8F0000C080000080C0000048
:1020F00070B50446006840308088C00B02D020468E
:1021000001F062FB20684030818849050AD581884A
:10211000334A11408180204600F0DAF80021204641
:1021200000F000F9206840308188490403D5818897
:102130002C4A11408180206840308188890403D571
:102140008188294A11408180206840308188042597
:10215000C904002910DA0188A9430180BD20216843
:10216000000240310880204600F0BEF82068403070
:1021700081881E4A1140818020684030818809058D
:1021800017D581881A4A1140818020684030018823
:1021900008221143018020684030018829430180D2
:1021A000206840308088C043C00402D5204600F03B
:1021B000E3F8206840308188890506D581880D4A7A
:1021C00011408180204600F0A5F8206840308188C9
:1021D000C90503D58188084A1140818070BD00007F
:1021E000FFFB0000FFBF0000FFDF0000FFEF00006B
:1021F000FFF70000FFFD0000FFFE0000F8B500271C
:102200000446002807D02546FF35E135687A0026C8
:10221000002802D005E00120F8BD2E72204600F013
:102220003BF80320687201220BE01C207843001960
:10223000014620314A720F72CE72466386637F1C5C
:10224000C6636068B842F0D800210BE01C20484308
:102250000019FF30013046720172C6724661866114
:10226000491CC66160688842F0D82068403002800E
:1022700020684030068020684030868020684030EA
:102280000682BF2021680002403108802034267178
:102290006A720020F8BD000008B500680A4988424B
:1022A00010D10A48C2690121C9050A43C261C06947
:1022B00000220840009003211F20FFF7C9FA1F20C9
:1022C000FFF7BCFA08BD0000005C004000100240AF
:1022D00010B5C41DFF34FA340121E06902F0B1FAEF
:1022E000E06902F076FA10BD10B504468069002856
:1022F00006D00748016906229143016101F0E0FC24
:10230000FF34FF340234E06902F086FA10BD0000A9
:1023100000ED00E0FF3010B5FF300230C06902F080
:1023200081FA10BD0246FF32E132137A012B08D048
:1023300001231372002906D0203001710020107291
:102340007047022070470068802140308181F5E7A6
:1023500010B5872189000A580146FF31ED3110463A
:1023600002F085FA10BD00684030018B0122D203D3
:10237000114301830020704710B50446FF30FF3041
:102380000230C06902F0C8FAA069002804D00348EE
:10239000016906221143016110BD000000ED00E05B
:1023A000F8B504460068434DC00353D5E8690026DC
:1023B000C00007D4E96928040143E961E9690140E3
:1023C000012600913C480168C90510D401688215B6
:1023D00011430160FEF740FF074604E0FEF73CFFB3
:1023E000C01B642823D834480068C005F6D5286A85
:1023F0000321090208401FD062680A4082421BD0B4
:10240000286A2A6A8843012109040A432A622A6A3F
:102410008A432A622862C0070ED0FEF71DFF0746D6
:1024200007E0FEF719FFC11B2448814201D90320B0
:10243000F8BD286A8007F4D5286A03210902884379
:10244000616808432862002E04D0E9690120000772
:102450008143E9612078C00705D0286BA168800816
:102460008000084328632078800706D5286B032165
:1024700009048843E168084328632078800605D56D
:10248000286B102188432169084328632068800352
:1024900005D5286B80218843A169084328632088DB
:1024A000400505D5286B40218843616908432863AE
:1024B0000020F8BD001002400070004088130000AA
:1024C000F8B505464E480E460068C007C00FB0423A
:1024D0000AD24B480168490849003143016000684D
:1024E000C007C00FB04270D12878464F800705D58D
:1024F0007868F0218843A968084378602878C00785
:1025000053D06868012817D0022818D0032819D0A2
:1025100039688907002958DA7968890889000143F0
:102520007960FEF799FE04466868012813D00228F6
:102530001DD0032827D034E039688903EAE73968D9
:102540008901E7E7796BC903E4E7FEF785FE011B24
:102550002D48814223D878680007800F0128F4D1E4
:1025600023E0FEF779FE011B2748814217D87868DF
:102570000007800F0228F4D117E0FEF76DFE011B63
:10258000214881420BD878680007800F0328F4D1D6
:102590000BE0FEF761FE011B1B48814201D90320BD
:1025A000F8BD78680007800FF3D115480168C907A6
:1025B000C90FB1420BD90168490849003143016094
:1025C0000068C007C00FB04201D00120F8BD2878D4
:1025D000400706D57868072109028843E96808435F
:1025E000786000F049F87968084A0906090F515CDB
:1025F000C840074908600020FFF7C2F80020F8BD76
:10260000002002400010024088130000FCA40008D3
:102610000000002010B5072202600A4A53689B0799
:102620009B0F43605368F024234083605268072364
:102630001B021A40C26004480068C007C00F08604F
:1026400010BD000000100240002002400148006858
:1026500070470000000000200448054900684968F0
:10266000044A4905490F515CC840704700000020EA
:10267000001002400CA5000830B516A00FC889B0A4
:102680006C460FC417A00FC80FC41A4D6A680C20FF
:10269000114601401848042905D0184B082904D0D8
:1026A0000C2900D1184609B030BD9102090F6C46C3
:1026B000645CE96A04AD0907090FD203695C920FF3
:1026C000022A02D0032A00D11846FDF74DFD6043CF
:1026D000E9E7000002030405060708090A0B0C0DD0
:1026E0000E0F10100102030405060708090A0B0C5F
:1026F0000D0E0F100010024000127A00006CDC0278
:10270000FEB504460078EF4EEF4DC00747D068682D
:102710000007800F012818D068680007800F022882
:1027200004D16868C003800F02280ED060680128B9
:1027300012D001218904002801D0052816D028686C
:10274000B04328602868884308E02868800326D5BD
:102750006068002873D022E02868304328606068F1
:10276000002810D0FEF778FD074608E028680843E7
:102770002860F1E7FEF770FDC01B642870D8286858
:102780008003F7D50BE0FEF767FD074604E0FEF790
:1027900063FDC01B6428F1D828688003F7D4207833
:1027A00080073ED568680007800F14D0686800076E
:1027B000800F022804D16868C003800F01280AD066
:1027C000E068002828681DD0012108432860FEF732
:1027D00043FD07460BE0286880070BD5E068012819
:1027E0002DD107E0FEF738FDC01B0228C6D82868A7
:1027F0008007F7D52868F82188432169C900084374
:1028000028600EE0400840002860FEF725FD0746DE
:1028100004E0FEF721FDC01B0228AFD8286880071E
:10282000F7D42078000724D5E0690028686A10D022
:10283000012108436862FEF70FFD074605E03FE10E
:10284000FEF70AFDC01B022898D8686A8007F7D5F2
:102850000FE0400840006862FEF7FEFC074605E016
:10286000C3E0FEF7F9FCC01B022887D8686A80071E
:10287000F7D4207804274007002861DA002001906F
:10288000E869C00008D4E969B8060143E961E9696B
:1028900001400120009101908C480168C90511D4C4
:1028A0000168821511430160FEF7D6FC009005E037
:1028B000FEF7D2FC0099401A642897D88348006834
:1028C000C005F5D5A06801280AD0002801D0052848
:1028D00011D0286A400840002862286AB84302E004
:1028E000286A012108432862A068002812D0FEF758
:1028F000B3FC00900AE0286A38432862F0E7FEF74C
:10290000ABFC0099411A724881426ED8286A800750
:10291000F5D50DE0FEF7A0FC009006E0FEF79CFC6C
:102920000099411A6A4881425FD8286A8007F5D425
:102930000198002804D0E869012109078843E8616B
:102940002078C00635D5606901280CD0401D686B21
:1029500024D038436863686B400840006863FEF722
:102960007BFC074622E0686B38436863686B012193
:1029700008436863FEF770FC074604E0FEF76CFC52
:10298000C01B022831D8686B8007F7D5686BF82127
:102990008843A169C900084368630AE0B8436863D3
:1029A000F4E7FEF759FCC01B02281ED8686B8007AD
:1029B000F7D42078800637D568680007800F032891
:1029C00014D068680007800F022804D16868C0032B
:1029D000800F03280AD0206A0028686B16D0304385
:1029E0006863FEF739FC06460CE062E0686BC003E2
:1029F0001AD5206A012863D116E0FEF72DFC801B52
:102A0000022856D8686BC003F7D50DE0B043686361
:102A1000FEF722FC064604E0FEF71EFC801B02289F
:102A200047D8686BC003F7D4606A002846D069684D
:102A30000907890F022943D001273F060228286889
:102A400005D0B8432860FEF707FC044633E0B843DE
:102A50002860FEF701FC064604E0FEF7FDFB801B44
:102A6000022826D828688001F7D4E86A216B00097B
:102A700000010843E862A16AE06A084369687B22B2
:102A8000D203914308436860286838432860FEF702
:102A9000E3FB044604E0FEF7DFFB001B022808D836
:102AA00028688001F7D509E0FEF7D6FB001B022855
:102AB00001D90320FEBD28688001F5D40020FEBDA9
:102AC0000120FEBD00000100001002400070004027
:102AD0008813000070B5040010D002202546403550
:102AE000687720680168402291430160204600F029
:102AF00063F8002020666877287770BD012070BDDC
:102B0000F8B5040007D0002625464035A662687F48
:102B1000002802D005E00120F8BD2E77204600F005
:102B20005FF802226A7720680168402399430160B8
:102B30000723E0681B02984201D9002101E001212E
:102B400009030F273F02B84202D0984200D0A66284
:102B5000276B002F05D1984201D9226301E00120A3
:102B60002063A26860686369104322691A431043B6
:102B70000123A2695B021A401043E2691043226AF2
:102B80001043A26A104322681060626B606AA369F6
:102B900010431B0C0427E2683B401A4310430843D0
:102BA000216848602068C1697A029143C161266644
:102BB000012068770020F8BD10B5006806498842FA
:102BC00009D1064881698214914381610920E0217D
:102BD000C006FEF701FA10BD0030014000100240AF
:102BE00000B500680D4987B0884215D10C4882694C
:102BF00081140A438261806908400590E0200090BA
:102C000002200190002103200390029104910920E9
:102C10006946C006FEF76AFA07B000BD0030014001
:102C200000100240FFB5044683B00020274640371D
:102C30000090387F1E460D46012809D001203877C4
:102C4000FEF70AFB0190787F012804D0022050E0B3
:102C5000022007B0F0BD002D2FD0059800282CD001
:102C60000320787700202066A5630599A187059940
:102C7000E1872064B880F8802065E0640121A068C5
:102C8000C903884205D120680168012292031143DB
:102C9000016020680168490603D40168402211439D
:102CA00001600720E1680002814260682CD9002899
:102CB00005D0E08F012802D022E0012019E0216830
:102CC0002888C86005E020688168890706D52988BA
:102CD000C160E08F401EE087AD1C11E0002E07D0E0
:102CE000701C0DD0FEF7B8FA0199401AB04207D314
:102CF0000320009001207877002038770098A8E71B
:102D0000E08F0028DFD131E0002802D0E08F0128D9
:102D100029D1E08F012803D921682888C8600CE0F8
:102D20002168287808730FE020688168890710D52A
:102D3000E18F012906D92988C160E08F801EE087D4
:102D4000AD1C10E029780173E08F401EE0876D1CF8
:102D500009E0002ECCD0701C05D0FEF77DFA019959
:102D6000401AB042C4D2E08F0028DDD1314620465F
:102D7000019A00F0E9FE002801D020202066A0681A
:102D8000002803D12068C16880680190206E002867
:102D900093D1AFE7FFB5044683B001200190002036
:102DA000254640350090287F17460E4601280FD053
:102DB00001202877FEF750FA0290687F61680128A9
:102DC0000DD0CA1FFD3A08D1A168002905D102E043
:102DD000022007B0F0BD042801D0022075E0002ECB
:102DE00026D0002F24D00698002821D0687F042800
:102DF00001D0052068770020206627640699E980C5
:102E00000699A980A6630699E1870699A187E064DF
:102E100020650723E1681B02994202D8E88801284F
:102E200008D920684268012109038A43426007E00B
:102E300001204AE0206841680122120311434160E9
:102E400020680168490603D40168402211430160EB
:102E5000E1686068994246D9002802D0E08F0128D5
:102E60003AD121683088C860E08F401EE087B61CE8
:102E700032E0019800280ED0E08F00280BD02068A7
:102E80008168890707D53188C160E08F401EE087DF
:102E90000020B61C0190E88800280BD020688168CB
:102EA000C90707D0C0683880E888401EE880012044
:102EB000BF1C01900C98401C0ED0FEF7CDF9029972
:102EC000411A0C98814207D30320009001206877B3
:102ED0000020287700987CE7E08F0028C9D1E88897
:102EE0000028C6D165E0002802D0E08F01285AD121
:102EF000E08F012807D921683088C860E08F801EE4
:102F0000E087B61C4FE0216830780873E08F401EE0
:102F1000E087761C47E00198002818D0E08F002851
:102F200015D020688168890711D5E18F012906D95C
:102F30003188C160E08F801EE087B61C05E03178E3
:102F40000173E08F401EE087761C00200190E88826
:102F500000281ED020688168C9071AD0E988012995
:102F60000FD9C0683880E888801EE880E888BF1CD8
:102F700001280CD8206841680122120311434160E6
:102F800005E0007B3870E888401EE8807F1C012047
:102F900001900C98401C06D0FEF75EF90299411A88
:102FA0000C98814290D2E08F0028B4D1E8880028A4
:102FB000B1D12046029A0C9900F0C6FD002801D03C
:102FC00020202066206E002800D031E77EE7000038
:102FD000042204490428086902D09043086170471C
:102FE0001043FBE700E000E0094910B5401E8842AD
:102FF00001D9012010BD074C60610321081F00F0BA
:10300000C1FB0020A06107202061002010BD00004E
:10301000FFFFFF0000E000E07047704770B504005C
:1030200005D025462035687F002802D006E0012023
:1030300070BD00202877204600F00AF8022068774B
:10304000211D206800F0B8FE01206877002070BDC7
:1030500070470168CA6801231A43CA6000680168A2
:103060001943016000207047704770B5044600683E
:1030700001690025C9438907002915DBC168C943D7
:10308000890711D4E91E0161012020772068806939
:103090008007204602D0FFF7E7FF04E000F096F833
:1030A000204600F094F8257720680169C943490754
:1030B00017D4C168C943490713D40421C943016126
:1030C00002202077206880698005800F204602D08A
:1030D000FFF7CAFF04E000F079F8204600F077F827
:1030E000257720680169C943090716D4C168C94317
:1030F000090712D40821C943016104202077206800
:10310000C0698007204602D0FFF7AEFF04E000F060
:103110005DF8204600F05BF8257720680169C94317
:10312000C90617D4C168C943C90613D41021C943BD
:103130000161082020772068C0698005800F204643
:1031400002D0FFF791FF04E000F040F8204600F0C5
:103150003EF8257720680169C943C90708D1C168CD
:10316000C943C90704D1891E0161204600F030F827
:1031700020680169C943090609D4C168C943090621
:1031800005D48021C94301612046FFF745FF20682F
:103190000169C943490609D4C168C943490605D430
:1031A0004021C9430161204600F01CF820680169F4
:1031B000C943890609D4C168C943890605D42021B9
:1031C000C94301612046FFF728FF70BD7047704773
:1031D00010B500680249884201D1FEF7B9FA10BD66
:1031E000001000407047000000B500680E4987B02D
:1031F000884216D10D488269012189030A43826100
:10320000806908400590481100901220019001212A
:10321000032003900291049109206946C006FDF73E
:1032200065FF07B000BD00000038014000100240FB
:10323000FFB5074605466037787A83B00C462028EC
:1032400058D1002C0CD00598002809D00120A9687D
:103250000003814207D12869002804D1E00702D089
:10326000012007B0F0BD387A012843D00120387220
:103270000020E86621207872FDF7EEFF01902E46CF
:103280004036059830820598708218E0708A401E9A
:10329000708206980090002280212846019B00F051
:1032A00023FF002818D10120A9680003814202D120
:1032B0002869002812D0296820780885641C708A43
:1032C0000028E3D106980090002240212846019B67
:1032D00000F00AFF002808D00320C2E720882968F0
:1032E000C005C00D0885A41CE9E7202078720020E5
:1032F0003872B6E70220B4E7FEF7AEFAFEE70168DF
:103300008A69D243920701D400228A6200688169E7
:10331000C943C90703D08169012211438161704704
:10332000F8B504460068174680690E46C043C006DB
:103330002CD42546403520688069C04380060FD5CF
:10334000701CF8D0002E04D0FDF786FFC01BB042E1
:10335000F1D9202068700020A87028700320F8BDE3
:1033600021681020C86120682026C6612046FFF72A
:10337000C6FF20684168064A11404160042060642D
:103380006E700020A87028700120F8BD0020F8BDE4
:1033900000E800FEF8B504460120164640031D462D
:1033A000DAB2C3020090079F204600F029F83A469F
:1033B0002046069900F081F8002803D0606C0428AC
:1033C0001BD018E02846F5B2012809D02168300A40
:1033D00088623A462046069900F06FF80028EDD141
:1033E000206885620097002280212046069B00F01D
:1033F00019F8002800D00320F8BD0120F8BD000016
:1034000070B50068049D44688905890D1204044E56
:1034100011431943344029432143416070BD0000EA
:10342000009800FCF8B51C4617460E46054611E00C
:10343000601C0FD0002C05D0FDF70EFF0699401A36
:10344000A04207D92020403568700020A87028705D
:103450000320F8BD286881693046884304D00020E5
:10346000B842E5D00020F8BD0120F9E770B5164656
:103470000D4604461AE0324629462046FFF750FF23
:10348000002801D0012070BD002D04D0FDF7E4FE1E
:10349000801BA8420AD9616C20200143616440343A
:1034A00060700020A0702070032070BD20688069CB
:1034B000C0438006DFD4002070BD70B516460C46B0
:1034C00005461CE0324621462846FFF729FF002822
:1034D00001D0012070BD601C11D0002C04D0FDF77C
:1034E000BBFE801BA0420AD9696C2020014369649D
:1034F000403568700020A8702870032070BD2868CF
:103500008069C0438007DDD4002070BD0EB515482A
:1035100013490160002141608160012204230C30C5
:103520000EC0016041608160FF23C160C233416110
:103530000361C26181611838FDF7C6FB002800D025
:10354000FEE71020009000020190000402906946FE
:103550000448FDF71FFB002800D0FEE70EBD000069
:1035600000240140D812002010B504490448FDF79A
:10357000ECFA0249491E087010BD000095000020B9
:1035800080000020F0B5374887B042690121C904A6
:103590000A43426142690A4005924269C9000A43EE
:1035A000426142690A400592426949110A434261F7
:1035B00042690A400592426949000A4342614069F2
:1035C000294E08400927FF0605900022314638465B
:1035D000FDF73BFE012211462448FDF736FE072089
:1035E0004003002401256A4631C269462048FDF7A0
:1035F0007DFD03206A4631C269461E48FDF776FD0F
:10360000029469463846009601950394FDF76EFDD5
:1036100019486A4631C269463846FDF767FD1020F1
:10362000009016480190694602953846FDF75EFD08
:103630000095029469460D4801950394FDF756FDE7
:103640000F486A4631C269460848FDF74FFD00221F
:1036500003210720FEF7FCF80720FEF7EFF807B07C
:10366000F0BD00000010024001040000000400480A
:1036700000080048001400480681000000003110D6
:10368000F8E0000010B5124810490160114941608E
:10369000002181600161416181610122C161C260DB
:1036A0000162FDF763FE002800D0FEE70021084814
:1036B000FDF713FE002800D0FEE700210448FDF7C7
:1036C00031FE002800D0FEE710BD0000005400408D
:1036D000241300200B02000010B510480E490160B1
:1036E000FF21053141600021072281601202016142
:1036F000C26001224161520282610162416208227C
:1037000081620723C261C36242630163FFF7F8F974
:10371000002800D0FEE710BD0030014080130020DB
:1037200010B50C480A490160E121490241600021BD
:103730008160C16001618161C161082201624261F1
:103740004162FDF78FFD002800D0FEE710BD0000AC
:1037500000380140E413002010B500220549064856
:1037600000F0E2FE0549044801F005F9024801F0C5
:1037700053F910BD9C00002064140020E0000020DC
:10378000704700008307FF22DB0E9A408907090E6D
:10379000994000280BDA0007000F08388308084812
:1037A0009B001818C36993430B43C3617047830898
:1037B00004489B001818036893430B430360704749
:1037C00000ED00E000E400E0F0B585B00446002024
:1037D0006946088020462030029073E19A891707D5
:1037E0003F0F24D0B9000191415A19801A88120460
:1037F0007ED5BC4A1140019A81521C20784305199C
:10380000FF350935A87A0028206872D029788A0007
:10381000825A52046ED55022125ACB00B249121865
:103820005918515A8E05B60D7ED0EA88BDE09A89A6
:10383000D2062AD40188AD4A25461140018020686D
:103840005021095A283509182878C200A6481018AE
:10385000085A8005800D2064A16B0818A063002120
:103860002046FEF724F8029800790028B5D0686950
:103870000028B2D1029800798021084321684031A4
:1038800088810299002008711CE12546FF350288D5
:1038900009351A801B881B0519D5098A091828784B
:1038A000C2009148001D1018085A294683059B0D37
:1038B000AB61AA88E431206800F01EF92068894ACB
:1038C0000188114001802046FEF742FDFAE069467A
:1038D00009880904D8D58349834E0A4002802068AC
:1038E0005021095A361D08182978C900891902E0A3
:1038F0007FE03CE04DE0405A83059B0DAB6108D072
:10390000AA882969206800F0F7F8A9692869401891
:10391000286100212046FDF7D6FF20685021095A72
:1039200008188219E86800E043E03E280AD9C1027D
:10393000090CC00601D1491E89B288020121C903C0
:10394000084306E0C103090CC00701D0491C89B235
:10395000880210802068664A018811400122120303
:10396000514052005140634A11430180AAE0502166
:10397000095A0A182978CB005B49091D5918515A70
:103980008E05B60D20D0AA883346296900F0B4F818
:103990001AE05022CB00125A53491218091D591827
:1039A000515A8E05B60D04D02A893346296900F094
:1039B000A3F82978206889004C4B425A80331A407A
:1039C0004C4B40331A434252A8698019A8612869B8
:1039D00082192A616B69002B02D0E868B04204D9D1
:1039E00029782046FDF76FFF03E029782046FEF78F
:1039F000D7F968460088000664D51C204743206834
:103A000001993A4A415A3D191140019A283581528B
:103A1000A87A0028206811D029788A00825C520692
:103A20001ED55022125AC90012182F480818105AD1
:103A300083059B0DAB6124D0EA881EE05021095A12
:103A400009182878C20028481018085A83059B0DC9
:103A5000AB6121D0AA882969206800F062F81BE0D8
:103A60005022125AC90012181F48001D0818105A77
:103A700083059B0DAB6104D02A892969206800F079
:103A800050F8297820688900184B425A80331A4030
:103A9000174BF1331A43425220685021095A091832
:103AA0002878C20010481018085A8005800DA861B7
:103AB00029690A182A616B692978002B20460DD0E4
:103AC000FEF74EFA2068014640318A886B469A819B
:103AD000120400D582E6002005B0F0BDFDF7E7FE38
:103AE000F0E700008F0F0000020400000F8F0000BD
:103AF0008FBF000080800000101810B501229202D4
:103B00005C088018002C07D002880A70120A4A70DC
:103B1000801C891C641EF7D1DA0701D00078087078
:103B200010BD101801225B1C920210B55B088018B2
:103B3000002B08D04C780A78240214430480801C9F
:103B4000891C5B1EF6D110BDF8B50F460B46154615
:103B50000092032104460022C90200F01BF820262F
:103B6000002812D13B46002280212046009500F01B
:103B70005CF8002809D103213B4600224902204677
:103B8000009500F007F8002803D0206E304320662F
:103B90000320F8BDF8B51D4616460F4604463DE025
:103BA000032149028F4205D1002E03D1007B6946D3
:103BB00008700878681C31D0002D05D0FDF74CFB4B
:103BC0000699401AA84229D320684168E02291430F
:103BD00041606068C11FFD390CD10121A068C90393
:103BE000884202D04911884204D1206801684022ED
:103BF000914301600121A06A4903884207D12068EE
:103C000002688A430260206802680A430260012059
:103C100040346077002020770320F8BD2068816859
:103C20003940B142BCD10020F8BDF8B51D46174659
:103C30000E46044633E0681C31D0002D05D0FDF758
:103C40000BFB0699401AA84229D320684168E0225C
:103C5000914341606068C11FFD390CD10121A0680A
:103C6000C903884202D04911884204D12068016802
:103C70004022914301600121A06A4903884207D193
:103C8000206802688A430260206802680A43026072
:103C9000012040346077002020770320F8BD2068A1
:103CA00081683046884304D00020B842C3D1002048
:103CB000F8BD0120F9E7704710B504F0E1F810BD38
:103CC00070B598B001243A2005940090102004901B
:103CD0000690C0020A9003208004039402260794F1
:103CE00000250B90089409960C956846FEF708FD90
:103CF000002800D0FEE707201490169501211596A4
:103D0000179514A8FEF7DCFB002800D0FEE70E484C
:103D10000D90119513950F940DA8FEF741FB002807
:103D200000D0FEE7FEF792FC7D21C900FCF71CFAEB
:103D3000FFF75AF90420FFF74BF903210022081F6F
:103D4000FDF786FD18B070BD210002001248016821
:103D50000122114301604168104A1140416001682D
:103D60000F4A1140016001680122920491430160F1
:103D700041683F22120491434160C16A0909090167
:103D8000C162016B074A11400163416B4908490058
:103D90004163002181607047001002400CB8FF08A9
:103DA000FFFFF6FE2CFEFCFF10B50248FFF75DF9A1
:103DB00010BD0000BC1A0020F0B502681D4B0124A4
:103DC000A4071D4D984203D0A04201D0A84203D1C0
:103DD0007026B2434E683243184E194F98420DD0A8
:103DE000A0420BD0A84209D0164CA04206D0B04247
:103DF00004D0B84202D0144CA04204D103242402BF
:103E0000A243CC6822438024A2434C69224302602F
:103E10008A68C2620A688262984206D0B04204D0C0
:103E2000B84202D0084A904201D1096901630121D8
:103E30004161F0BD002C0140000400400040014001
:103E400000440140002000400048014010B5818C32
:103E5000C90707D001684A6801235B049A43836A53
:103E60001A434A60818C890707D501684A68012393
:103E70001B049A43C36A1A434A60818C490707D5D9
:103E800001684A6801239B049A43036B1A434A6002
:103E9000818C090707D501684A680123DB039A432F
:103EA000436B1A434A60818CC90607D501688A684A
:103EB00001231B039A43836B1A438A60818C890612
:103EC00007D501688A6801235B039A43C36B1A43D1
:103ED0008A60818C490612D501684B68012212055F
:103EE000046C934323434B60016C914207D10168FA
:103EF0004A6803235B059A43436C1A434A60818CEA
:103F0000090607D501684A680123DB04806C9A43DF
:103F100002434A6010BD0000F8B500250446C5669E
:103F2000FDF79AF9064616492068884202D01549DD
:103F300088421DD10068144F000709D5012133467E
:103F4000002249052046009700F0CEF800280DD148
:103F50002068006840070BD50121334600228905FF
:103F60002046009700F0C0F8002801D00320F8BDDB
:103F7000202060346072A07225720020F8BD00001D
:103F80000038014000440040FFFFFF01F8B504463F
:103F9000A3682269E56913436269102000212A435E
:103FA000134322680E461568474F3D401D43156078
:103FB0002268536803252D03AB43E5682B43536008
:103FC000A369226A1343226895680B273F02BD4309
:103FD0001D4395603D4B25683D4F02039D420AD12C
:103FE0003B6B9B079B0F20D0012B14D0022B14D0CE
:103FF000032B1BD10DE0374B9D4210D13B6B0327A8
:104000003F043B4011D09B1A05D09B1A05D0934228
:104010000CD102200AE0042008E0082006E02E4B24
:104020009D4202D02D4B9D4200D100200123E76923
:10403000DB039F4222D100280CD002280DD0042897
:1040400013D0082817D001260A0912010807400FCB
:1040500010432EE0FEF700FB09E06168204A4808A3
:104060008018FCF781F881B2EEE7FEF705FB616886
:1040700040004A08F4E761684808F1E7002808D0E2
:10408000022809D004280CD0082815D00126304673
:10409000F8BDFEF7E1FA06E06168124A48088018A8
:1040A0000DE0FEF7E9FA61684A088018FCF75CF851
:1040B00080B22168C860EAE761684808C018FCF768
:1040C00053F880B2E860E2E7F369FFEF003801409F
:1040D000001002400044004000480040004C0040F6
:1040E0000024F40000127A00FFB581B01E46174686
:1040F00005460A9C1CE0601C1AD0002C04D0FDF779
:10410000ABF8801BA04213D928680168FF22A132B6
:104110009143016028688168490849008160202036
:1041200060356872A87200202872032005B0F0BDC7
:104130002868C1690298884304D00020B842DAD0C8
:104140000020F3E70120F9E710B58522920012580C
:1041500052689047002010BD134610B50A46002152
:1041600000F024FB002010BD134610B50A460021C4
:1041700000F0DAFB002010BD10B50446802100F0ED
:10418000A5FB0021204600F0A1FB10BD10B5FF21CA
:104190000522F5310A5000231A46194600F006FBA5
:1041A000002010BD10B5FF230224F5331C5082619E
:1041B0001346C2610A46002100F0B6FB002010BD84
:1041C00010B5FF210422F5310A5000231A46194682
:1041D00000F0AAFB002010BD10B50A46024903A05A
:1041E00000F0DEF8004810BDBC180020484944200B
:1041F000436F6E66696700001220088000487047B0
:10420000BC00002010B50A46024903A000F0C8F81F
:10421000004810BDBC18002048494420496E746510
:1042200072666163650000000420088000487047E2
:10423000B800002010B50A46024903A000F0B0F80B
:10424000004810BDBC18002049424D20436F7270D9
:104250002E204E657456697374612046756C6C200F
:104260005769647468204B6579626F6172640000FD
:1042700010B50A46024903A000F092F8004810BDAC
:10428000BC1800204E657456697374612046756CC5
:104290006C205769647468204B6579626F61726441
:1042A0000000000010B50A46024903A000F078F8AB
:1042B000004810BDBC180020303030303030303075
:1042C0003030314100000000F8B50D460446498801
:1042D000FF300A0AFF300230130000F05EFD08458F
:1042E00005091645453A42450069237C02682BE0E2
:1042F000217C02264069002905D0C16A68468847AA
:10430000014646703CE0816AF8E7C9B20B0000F054
:1043100044FD0604080C1014182B0069237C426825
:1043200012E00069237C82680EE00069237CC26889
:104330000AE00069237C026906E00069237C426987
:1043400002E00069237C826969461846904701466D
:1043500016E0217C002907D14069416B68468847F7
:10436000F5E7217C002904D029462046FFF704FF09
:10437000F8BD4069016B68468847072201464270D4
:10438000684600880028F3D0EA88002AF0D08242EC
:1043900000D90246684602802046FFF703FFF8BDB9
:1043A00070B5002300281CD00446002502E06D1CD7
:1043B000EDB2641C2678002EF9D16C00A41C148088
:1043C000CC5403225B1CCA5400245B1C06E0CA5474
:1043D0005B1CDAB28C54521CD3B2401C0278002A07
:1043E000F5D170BDFF300021FF30023080690173CC
:1043F0000846704710B50446812100F0C1F8FF342B
:10440000FF340234A069002803D000F013FC002020
:10441000A061002010BD00002221018000487047EB
:10442000180100200A21018000487047480100203F
:1044300070B50546002405230322812100F0A0F970
:10444000102000F0F9FBFF35FF350235A861002888
:1044500003D000210173204670BD0124FBE710B595
:104460001346FF244322FD34D200245C1258032C4F
:1044700008D1147B002C05D1012414730A46812134
:1044800000F052FA002010BD70B543230022DB007B
:104490000D781B586026144635401BD0202D3ED188
:1044A0004A78022A13D0032A0AD00A2A0BD00B2AF0
:1044B00003D0FFF761FE022070BD887818602EE0FF
:1044C0000122194622E04888000A586027E00122AC
:1044D000191D1BE04D78062D04D00A2D19D00B2D87
:1044E0001DD11AE04B881B0A222B02D0212B06D0AB
:1044F0000BE0CA884E2A00D94E220A4C05E0094C2E
:10450000CA88183C092A00D909222146FFF74AFE29
:1045100005E0012219460831F8E788789860002004
:1045200070BD00005401002010B5002813D0C31D39
:10453000FF33FA335C69002C01D000245C61002950
:1045400000D01961FF210123FD310B54027000F0EE
:10455000C1F8002010BD022010BD10B5FF30FF30A3
:1045600002300024006AFDF771FA002806D0012805
:1045700001D0022801D0022400E00124204610BD11
:1045800010B5FF30FF3002300024006AFDF7AAF9B1
:10459000002806D0012801D0022801D0022400E022
:1045A0000124204610BDFEB50446FF30E51DE13074
:1045B000FF35FA3513460190002908D06869426931
:1045C000002A49D00198007F032843D044E02646C2
:1045D000FF3681362046716F1430022934D1C2680B
:1045E00081680092914207D9891A81608AB219467E
:1045F0002046FFF7B9FD13E0476811463846FBF740
:10460000B3FD002913D10098874210D3B06F8742C1
:104610000DD2002211462046FFF7A6FD0020B0670C
:1046200000231A461946204600F0C0F80CE06869DD
:10463000C168002905D00198007F032801D12046D8
:1046400088472046FFF7A2FD2878012804D10020E2
:10465000287001E0204690470020FEBD70B50E4650
:104660000146FF31E1310B46203315460446002E4A
:1046700007D058698269002A2AD0087F032824D0ED
:1046800026E0FF22F532E01D1259FD30032A1FD12A
:10469000C6688268B2420BD9931B8360304683425E
:1046A00000D303469AB229462046FFF755FD0FE096
:1046B00058690269002A04D0087F032801D12046E6
:1046C00090472046FFF77CFD02E0314620469047A8
:1046D000002070BD10B51949C41DC861FF341849C8
:1046E000FA34184821620860022208208A60486073
:1046F0000020C8608861C8610A6108620846FDF749
:104700007DFD002804D0FF2135310FA000F008FB0B
:10471000002218231146206AFDF7ACF85823002226
:104720008021206AFDF7A6F8FF23013300228121B2
:10473000206AFDF79FF8002010BD00009C180020A3
:104740009C160020005C00402E2E2F5372632F75A4
:104750007362645F636F6E662E630000FF30CA0988
:10476000FF3049060230490E1C23006A59430818DD
:10477000002A01D0203001E0FF300130807A7047FC
:1047800070B5FF301D46FF30023013460024006A2A
:104790002A46FDF7B5F9002806D0012801D00228E5
:1047A00001D0022400E00124204670BD10B5FF3086
:1047B000FF3002300024006AFDF7F2FA002806D02C
:1047C000012801D0022801D0022400E00124204663
:1047D00010BD70B50022044640231146FFF7D0FFFC
:1047E0004025FF20113005512B4600228021204614
:1047F000FFF7C6FFFF200121FD3025620155E01DB6
:10480000FF30FA308169002904D04069217942687B
:1048100020469047002070BDFF30E130417F017796
:104820000020704710B5FF21FD31095C032906D136
:10483000852189000958C969002900D088470020CE
:1048400010BD01740020704710B5FF30FF300230FA
:104850000024006AFDF766FD002806D0012801D07B
:10486000022801D0022400E00124204610BD70B5CA
:1048700005464120C0002818044600F068F8294683
:10488000FF3181310122084680304A67C2898A6738
:10489000017AC806C00E0AD001280DD0022810D017
:1048A000C909C901284600F011F8002070BD214651
:1048B000284600F0B6F8F8E72146284600F09DF9B2
:1048C000F3E72146284600F023F9EEE710B5FF3064
:1048D000FF3002300024006AFDF7FCFA002806D001
:1048E000012801D0022801D0022400E00124204642
:1048F00010BD10B5FF30FF3002300024006AFDF714
:1049000032FD002806D0012801D0022801D002245F
:1049100000E00124204610BDFF30E130017F4177E7
:10492000042101770020704710B5FF30FF300230BE
:104930000024006AFDF714FB002806D0012801D0EE
:10494000022801D0022400E00124204610BD0A788C
:1049500002704A784270CB788A781B02D218428063
:104960004B790A791B02D21882808A79C9790902A7
:104970005118C180704702460020002904D0FF3240
:10498000FF320232516170470220704710B5852214
:10499000920012580224002A04D01268904700287E
:1049A00000D10024204610BD70B50D468978194EFF
:1049B00004463170012904D929462046FFF7DCFB63
:1049C00070BD2046FF30E130027F022A15D0032A55
:1049D000F2D1002917D0606888420AD0C1B22046BF
:1049E000FFF7B2FB317861602046FFF7CFFF022866
:1049F000E2D02046FFF7E4FB70BD0029F9D0032286
:104A000061600277F0E70222027720466160FFF7DB
:104A10009BFBEEE7DC00002010B5FFF76AFF0020EB
:104A200010BDF8B505460020EA1D0090FF324F7812
:104A3000FA3214460126203C3B0000F0AEF90A3B56
:104A4000555A505A0A065A29255A2846FFF73CFC5F
:104A50005CE0888800284CD1C888002849D1887833
:104A60004706207F7F0E032843D0A7773946284684
:104A7000FFF7EAFE2846FFF7A3FB002F02D0022033
:104A8000207743E0267741E02846FFF78DFF3DE0A1
:104A9000CA88012A2DD1227F022A02D0032A28D1D6
:104AA00004E0012229460831A86001E00122291D05
:104AB00028460EE0237F2846022B01D0032B0BD182
:104AC000C6605168002901D00321C160014602225D
:104AD0000C31FFF767FB19E0FFF74EFB16E0488843
:104AE000012813D156600AE0237F022B03D0032B49
:104AF00001D02846F0E74B88012B07D15060506960
:104B00008268284690472846FFF75AFB0098F8BD70
:104B1000F8B504460D462878E61D4006FF36002706
:104B20000979800FFA36012809D06A783046203892
:104B3000002A38D0012A1ED0032A3DD106E0706930
:104B400029468268204690470020F8BD007F022851
:104B500017D003282CD16888002806D1002904D05A
:104B6000802902D02046FFF7B1FE7069294682688D
:104B70002046904713E0007F022802D0032817D177
:104B800004E0002918D080291AD115E0688800288F
:104B900012D1480603D02046FFF7DFFCE5E72046A8
:104BA000FFF70EFB08E0007F022807D003280BD098
:104BB00029462046FFF7E0FA3846F8BD4806FBD004
:104BC0002046FFF783FEF7E7C80904D04806400DEA
:104BD0000519143504E04806400D0519FF35053563
:104BE0002046FFF7BBFD002800D0012028600222EC
:104BF00029462046FFF7D6FADEE770B50446FF30B7
:104C0000E130007F0D4603280FD1287901280CD808
:104C1000852080000059826820469047E888002857
:104C200006D12046FFF7CCFA02E02046FFF7A4FAAF
:104C3000002070BD704700000048704788160020B3
:104C400010B50248FDF754FA10BD00009C16002074
:104C500010B5054802F0C4F8002803D0034801212C
:104C60000170007810BD0000541400207E00002068
:104C7000002910D00948012909D0022903D00329AD
:104C800007D00120704701204002108003E04068F7
:104C900000E080681060002070470000541400207D
:104CA000F8B51D4616460F4600240AE06002C219F8
:104CB0003119064804F0FAFA002801D00120F8BDA5
:104CC000641CAC42F2D30020F8BD00005414002054
:104CD00005480068002801D00020704703480121E2
:104CE0000170007870470000541400207E000020FE
:104CF000F8B51D4616460F4600240AE06002C219A8
:104D00003119064804F012FC002801D00120F8BD3A
:104D1000641CAC42F2D30020F8BD00005414002003
:104D2000FEE700000FB410B503A9044B044A029833
:104D300000F054F810BC08BC04B0184729690008FA
:104D4000F00100200FB410B504A9074B02AA039884
:104D500000F044F8044602A9002000F0ADF9204616
:104D600010BC08BC04B01847B95000082021020C40
:104D700001D010211046020A01D01046083902095C
:104D800001D01046091F820801D01046891E420832
:104D900001D0881E7047081A704730B47446641EEC
:104DA0002578641CAB4200D21D46635D5B00E318AE
:104DB00030BC184700487047FC01002002E008C8DA
:104DC000121F08C1002AFAD170477047002001E085
:104DD00001C1121F002AFBD170470000FFB58FB040
:104DE0000F460446002606E025280AD0129A11999B
:104DF0009047641C761C20780028F5D1304613B00B
:104E0000F0BD00250121A14A009500E00543641C86
:104E100023780846203B98401042F7D120782E286E
:104E200015D1042005436078641C2A280AD101CFDB
:104E3000641C00900BE000990A225143303940185D
:104E4000641C00902078014630390929F3D9207874
:104E50006C280ED004DC4C2813D06A2812D104E050
:104E600074280ED07A280DD10BE0012040050543AF
:104E700007E00121090562780D43824201D16D18D6
:104E8000641C641C2078864669284AD008DC002807
:104E9000B4D058286DD0632810D0642808D140E0E1
:104EA00070286BD0732812D0752860D0782860D015
:104EB000129A704611999047761CE5E03878694659
:104EC00008720020487202A80190012003E03868AF
:104ED00001900020C0433F1D69070CD5002500E06C
:104EE0006D1C00998D420FDA8542F9DB0199495D0D
:104EF0000029F5D108E0002500E06D1C8542FCDBAF
:104F00000199495D0029F8D1761907E001980199C6
:104F10000078491C0191129A119990476D1EF5D2A3
:104F2000B2E00A20029000216802400F039102289B
:104F30000CD001CFC117844600290DDA624608461D
:104F400052420021814194462D2008E0FF1DFF08B8
:104F5000FF0003CF8446EFE7280504D52B206A46DF
:104F6000107401203CE0E8073AD02020F7E70A203F
:104F700000E0102000210391029007E01020029031
:104F80000021042005430820039100906802400F8F
:104F9000022810D001CF0021844600200D90280760
:104FA0001FD5704670280CD0029A1020039B4240F7
:104FB0001A430CD015E0FF1DFF08FF0003CF844605
:104FC000EBE740206A46107401200D900CE060462B
:104FD000084306D030206A46107470465074022090
:104FE0000D907046582804D029A001900DA80E906D
:104FF0000DE02CA0F9E76046039B029AFBF772FBD9
:10500000019B84469B5C0E9A521E0E921370604662
:105010000843F0D10E9805A9081A203001906807BE
:1050200001D5009801E0012000900199884203DD3C
:1050300001460198081A00E000200025009006E0D3
:1050400004A8129A405D119990476D1C761C0D982A
:105050008542F5DB04E0129A302011999047761CC6
:105060000099481E00900029F5DC08E00E980E9982
:105070000078491C0E91129A11999047761C01995B
:10508000481E01900029F1DC641CB4E609280100E7
:1050900030313233343536373839616263646566AE
:1050A0000000000030313233343536373839414270
:1050B00043444546000000000A68531C0B60107012
:1050C000704700001C4D02E0192002F051FE2878C4
:1050D0000028F9D000F038F8184E02F093FAFCF7E7
:1050E000BBF8A968401AB04202D9012004F02CFC98
:1050F000FCF7B2F86968884219D91148007800288D
:1051000010D0FBF76DF80321FBF744F8491E4CB2B1
:10511000FBF766F80321FBF73DF8491E48B221462C
:1051200003F006FBFCF798F8064940186860192060
:1051300002F01EFED1E700002C000020E0930400E6
:105140001C000020C0D4010070B5064D0024A00151
:10515000E1B2401902F0DAFA641C0F2CF7DB00F020
:1051600003F870BD080F0020F8B5184D0020285432
:10517000401C0F28FBDB0F21144804F049FA144EA1
:105180000024600021181348A5010918FF31A8194F
:1051900008230122923102F0CDFA0C48005DFBF7A2
:1051A0004DFA00220C4BFBF769F907460091705944
:1051B000FBF744FA3A46009BFBF7AEF8FBF74CFAD4
:1051C000641C70510F2CDCDBF8BD0000C8120020FD
:1051D000080F0020E80C00200000F83F70B52E4BAF
:1051E000024601211C7800201D186D78002D00D08A
:1051F0000021401C1028F7DB002923D0002004F0F8
:1052000079FA0D210A2004F0F7FA244C012306CC88
:1052100023A0083C04F082FB2521002004F0ECFAD6
:1052200006CC01232348083C04F078FB32211220ED
:1052300004F0E2FA06CC01231F4804F06FFB04F0EF
:10524000E1FA70BD002A04D0601E0F2808DD0F248B
:1052500007E0601C0F2801D9002402E0641C00E074
:10526000641EE4B2181940780028EBD0204602F002
:10527000EDFB0021084603F05BFA1049012008709D
:105280000F4800F03DFD0E48283800F027FD20466D
:1052900003F06EFD70BD0000E80C0020040000204B
:1052A0004E6F2056616C69642050726F66696C6540
:1052B00073000000580000206E0000201C00002039
:1052C0004C0A002070B50446FF30FF300022023047
:1052D0000271521E0263204602F0B9FC002801D080
:1052E000032070BDFF20FF30005B1049884201D0D1
:1052F000022070BD20463730FAF7F6FF3621095DEF
:10530000000208430A4D0002A8420AD0204653304A
:10531000FAF7EAFF4034A17C000208430002A842E9
:1053200001D1002070BD012070BD000055AA000011
:105330000046415400E0401C0278002A01D08A4215
:10534000F9D1D0B2704710B5446A00680A46FF3000
:10535000FF3002308178500A241DFAF705FF02CC95
:10536000002904D0884204D3401A241DF7E7002006
:1053700010BD2168081810BDFF30FF30023082696F
:10538000891E921E8A4201D8002070478278C06A26
:105390004A43101870470000F3B50C78BF20044052
:1053A0000D20641E4443002681B00F460125154898
:1053B000805DC0194178027808021043002D0DD09D
:1053C00001F092F80546202C18D261000198641C67
:1053D000405A01F089F8A84210D102E00A498842F7
:1053E0000CD1761C0D2EE2D33878400608D5002D5E
:1053F00006D001986100405A002801D00020FEBD6F
:105400000120FEBD24B40008FFFF000030B50446B3
:10541000002002460EE0030AA55C000203436B4035
:105420001806000F5840030343409BB21806C00CF7
:105430005840521C8A42EEDB30BD48400021892290
:10544000030600D550404006000E491C0829F7DB32
:1054500070470000F3B581B0019D0F46FF35FF3561
:105460000235002906D0019801F0F8FA022809D285
:105470000120FEBD2E69002E02D0A869B04207D8D7
:10548000012605E0411CF4D0A9698142F1D83E46CD
:105490003446A869641CA04202D80224022E0BD311
:1054A0002146019801F0DAFA002807D0411CE0D02B
:1054B0000128DED0B442ECD10020FEBD114A2146C5
:1054C000019803F047FB002808D1002F0BD022469B
:1054D0003946019803F03EFB002804D001280DD086
:1054E00001242046FEBD2C616869411CF9D0401E94
:1054F00068616879012108436871F2E70024E44398
:10550000EFE70000FFFFFF0FF3B585B006980568D1
:1055100000E06D1C28782F28FBD05C28F9D0059876
:105520000024C06926460490A85D761C202817D365
:105530002F2815D05C2813D0202C34D2012100F064
:105540008DFF07002FD0802F05D201466AA0FFF7FC
:10555000F1FE002827D161000498641C4752E3E75C
:10556000AA19069920280A6001D2042619E000260B
:1055700017E00498610008184038C08F20280FD029
:105580002E280DD0002C0ED00498002162008152EC
:1055900005980B228069202102F052FB002706E0CB
:1055A000641E002CE5D1062007B0F0BD7F1C0498D6
:1055B0007900405A2028F9D02E28F7D0002F03D0A8
:1055C0000320064300E0641E002C06D0049861000E
:1055D00008184038C08F2E28F5D100200090019087
:1055E0000820039004987900455A7F1C002D22D092
:1055F000202D03D02E2D04D1A74202D00320064334
:10560000F0E703990098884201D2A74219D10B29EB
:105610000FD0A74201D003200643A7420BD8082091
:1056200000900B200390019827468006000E019001
:10563000D8E703200643059880690178E52935D02D
:1056400036E0802D0DD30021284600F007FF05002D
:1056500003D02C4840198038057802200643002DDD
:1056600005D0294628A0FFF765FE002803D05F2556
:105670000320064312E028464138192804D801982F
:1056800002210843019009E028466138192805D80D
:10569000019801210843203DADB201900598816930
:1056A00000980D540098401C00909BE70521017064
:1056B00003980828019802D18006000E0190000787
:1056C000800F032803D00199C943890701D1022122
:1056D0000E43B1070AD401998907890F012901D125
:1056E00010210E43012801D1082006430598806946
:1056F000C672002058E70000222A3A3C3E3F7C7FD9
:1057000000000000A4B300082B2C3B3D5B5D0000B3
:10571000F8B50446002100F012FA00285DD1FF25FB
:105720002E48009520842169206802F090FA070035
:1057300052D166693078002809D0F17A8906890E3D
:10574000E52840D00A0704D50F293CD106E00427FC
:1057500042E00F2902D0002D1DD023E0E269002A8B
:1057600034D0410606D5717B0091BF210840E18805
:1057700005462184A8420BD1717B0098814207D154
:1057800031461046FFF708FE002801D06D1E00E0EC
:10579000FF25EDB21AE0304604F0F6F80146009815
:1057A000814219D0A069C17AC9070CD10B2100220E
:1057B000491E06D332780378401C761CD21AF7D0E3
:1057C00001E0002A08D00548FF252084002120465A
:1057D00000F006F80700A6D03846F8BDFFFF00002D
:1057E000F8B5C78804467F1C38040E46000C35D037
:1057F0002069002832D039076CD1401C2061E16853
:10580000002924D0374B20683A091B5C5B1E1A42E2
:1058100060D101F023F90546012823D9681C3BD04B
:1058200043212068C9000958A9424DD8002E15D03F
:10583000E168FFF70FFE050012D0012D12D0681CA1
:105840002AD0206804F0F7F8002825D10CE0206861
:10585000FF30FF3002300089B8423BD80420F8BD49
:105860000720F8BD0220F8BD012252020021206865
:1058700002F0E6F929462068FFF77EFD2168FF3136
:10588000FF3102310026086310E001210171206818
:1058900004F0D1F8002801D00120F8BD2068FF30C5
:1058A000FF300230016B491C761C01632068FF3019
:1058B000FF3002308178B142E7D82168FF31FF31F3
:1058C0000231096B891B0163E56029462068FFF7F7
:1058D00053FD2061E78039072068C90D40186061D9
:1058E0000020F8BD02020000F3B5FF2581B0044698
:1058F0000426009570E0206802F0A9F9060070D136
:1059000062691078002810D0D17A8906890EE528BE
:1059100009D02E2807D0DF230B40082B07D0002307
:10592000029FBB4205D0FF2545E0042659E0012334
:10593000F6E70F2902D0002D4BD143E0410606D5F2
:10594000517B0091BF210840E18805462184A8428F
:105950002FD1517B009881422BD1E0698446107889
:105960008106890E0D20491E4143002001261F4B50
:105970001B5C9B185F781B783F021F43002E07D0EB
:10598000202916D23E464F006346DE53491C02E0F2
:10599000174B9F420DD1401C0D28E8D310784006CC
:1059A00005D5202905D200204A00614688526D1E87
:1059B00000E0FF25EDB200212046FFF711FF0600B1
:1059C0000AD00EE0104603F0DFFF01460098814246
:1059D00009D00748208406E0216900298BD1002ED8
:1059E00001D0002020613046FEBD000024B4000834
:1059F000FFFF0000F0B5876985B00446C6690C2238
:105A00003946684602F014F96846C07AC00719D0D2
:105A10000020F8720125E0612B463246694638467F
:105A200000F0B8FF2046FFF773FE002802D16D1C7E
:105A3000642DF1D3642D0BD004280AD16846C07AB6
:105A4000F872E6616846C07A80070FD5002003E04F
:105A5000072005B0F0BD401C4100715A0029FAD161
:105A60000D211930FAF780FB074600E001270021DD
:105A7000204600F064F8002813D100262169206830
:105A800002F0E5F800280CD161690978E5290BD00E
:105A9000002909D0002601212046FFF7A1FE002899
:105AA000ECD0042804D004E0761CBE4201D0F2E71A
:105AB0000720050041D101267F1E23D0E088C11BAD
:105AC000204600F03CF8050037D1A06903F05CFFE8
:105AD00003902169206802F0BAF805002DD1FAB2CE
