:020000040800F2
:10000000183E00204D0100089D370008F532000819
:1000100000000000000000000000000000000000E0
:10002000000000000000000000000000DB3C0008B1
:1000300000000000000000000B010008DD3C00088B
:100040005F0100085F0100085F0100085F01000810
:100050005F010008250B00082F0B00085F01000856
:100060005F0100085F0100085F0100085F010008F0
:100070005F0100085F0100085F0100085F010008E0
:100080005F010008CD3D00085F0100085F01000826
:100090005F0100085F0100085F0100085F010008C0
:1000A0005F0100085F0100085F0100085F010008B0
:1000B0005F0100085F0100085F010008514C000863
:1000C0000348854600F0ECFB00480047C577000870
:1000D000183E0020084B19680868203080F3098812
:1000E000022080F31488BFF36F8F3FBCAE4608BC7C
:1000F00004BC62B618470000FC010020EFF310803A
:1001000072B6704780F310887047EFF309800E4B8A
:100110001A6820381060F0C044464D4656465F4687
:10012000F0C008B572B609F0A3FE62B60CBC116847
:1001300008681030F0C8A046A946B246BB4680F316
:1001400009882038F0C81847FC010020044880477F
:1001500004480047FEE7FEE7FEE7FEE7FEE7FEE7AE
:10016000713D0008C100000830B50B460146002073
:100170002022012409E00D46D5409D4205D31D46AD
:100180009540491B2546954040191546521E002DA5
:10019000F1DC30BD70B500242546002801DA0124C9
:1001A0004042002901DA01254942FFF7DDFFAC4258
:1001B00000D04042002C00D0494270BD10B5202A2A
:1001C00004DB0846203AD040002110BD0B46D34046
:1001D000D0402024A21A91400843194610BD0000C7
:1001E0000549064A08685043054A801808604008D7
:1001F0007047014908607047380200206D4EC641C3
:100200003930000003460B439B0703D009E008C9BF
:10021000121F08C0042AFAD203E00B780370401CB6
:10022000491C521EF9D27047D2B201E00270401C44
:10023000491EFBD270470022F6E710B513460A4666
:1002400004461946FFF7F0FF204610BD30B50546BD
:100250002A460B4610781C78521C5B1C002801D0E3
:10026000A042F7D0002C03D0002802D06D1CEFE78D
:10027000284630BD10B5044605E00B780370401CDD
:10028000002B00D0491C521EF7D2204610BD421C44
:100290000178401C0029FBD1801A704703460A7878
:1002A0000270401C491C002AF9D11846704730B52D
:1002B00005460020034600E05B1C934205D2EC5C3F
:1002C000C85C201A01D1002CF6D130BD0321001DDD
:1002D000401E037812021A43491EF9D51046704792
:1002E00070B5064604F06EFD046805460A2200213A
:1002F000304600F03DFA2C6070BD0000F0B50746B6
:100300000846584087B0C00F049048000E46590078
:1003100040084908BC1A884105D2384631461E4675
:1003200017460B4602465800400810434CD0300D8B
:10033000039040055900400D490D0590401A029068
:10034000402872DA18030121000B090508430190C7
:1003500004980092002805D001995242002088415B
:1003600000920190029840210A1A0199009800F029
:10037000DBF905460C466B4607CB00F0E5F9C019E2
:100380007141039A0E0D0023D71756401A467A4042
:10039000164344D0049A002A2DD0029A012A039AC7
:1003A00015DC1205C01A914101263605001C714169
:1003B000D20F059ED2070093019202962A46234649
:1003C00000F01BFA07B0F0BD38463146FAE71605D3
:1003D000224A0F46B218C01AB74101210905001C74
:1003E0004F4100187F41114618187941E20F104320
:1003F0006D19644113E0E2076D0815436408C207F4
:100400001443039A01261205C01A91413605001CB7
:100410007141CE07400830434908C01851412A466F
:10042000234600F0DDF9CDE7FFE704980122400004
:10043000C117121A00238B4104983146C417381A89
:10044000A141EEE730B40124E407634030BC55E736
:1004500030B40124E407614030BC4FE70000E0FF06
:10046000F0B51FB488B00B99099800244840099949
:10047000C00F490049080991C0070B990090490035
:1004800049080B9109990898A64608431CD00B9976
:100490000A98084318D0099801244000420D4800EA
:1004A000410D099824050003000B204309900B9887
:1004B0000003000B20430B9050181C4940180022E9
:1004C00001901446104605E0002001460DB0F0BD35
:1004D000032801DA034600E003239C46C11A0AAE52
:1004E0000AE05F0008ADED5B4F00F75B7D4300273E
:1004F000AA187C41491C5B1E6145F2DD410004AB3A
:100500005A522104120C0A43240C401C0828DFDB39
:10051000019802900099704601910090059B049A01
:100520000799069800F069F9D0E700000DFCFFFF7D
:10053000F0B50C465C4085B0E40FE40703944C0032
:100540000026640859009446490802460296224350
:1005500021D062460A431ED06200570D4A000E03A6
:100560002303550D012402462C492405781B1B0B3F
:10057000360B401823432643614600901C46501A10
:10058000B44103D30098401C009002E092180098F8
:100590005B41002803DA0020014605B0F0BD0020D1
:1005A000012109050746864611E064461D46141BD5
:1005B000B54106D36546521BB341744607430C430D
:1005C000A646CD0740084908284392185B410546D6
:1005D0000D43EAD11046184313D0604619465040E7
:1005E0007140084306D06046101AB34106D201227A
:1005F000002306E000220123DB0702E00122D243B0
:100600005310009874460105381C6141029C039DFB
:100610000019694100F0E4F8BFE70000FD030000A5
:100620000EB505490291002100910A460B46019141
:1006300000F0E3F803B000BD330400004A000903F2
:100640000123090B1B051943094B10B5520D9A42A2
:1006500001DA002010BD064B34339A4203DC9A1AAB
:10066000FFF7ACFD10BD03495118884010BD0000D4
:10067000FF030000CDFBFFFF10B5002904DB0124C0
:10068000E40740428C412146002B04DB1C46012339
:10069000DB075242A3418B4200D1824210BD0000D1
:1006A00010B5002904DB0124E40740428C412146B7
:1006B000002B04DB1C460123DB075242A341994275
:1006C00000D1904210BD0000F0B51FB406460020D6
:1006D00082B005464024019100901BE0019922461A
:1006E0000F463046FFF76AFD049A059B801A994130
:1006F00010D310461946224600F016F8361A8F41DC
:100700000197224601200021009F00F00DF83818C3
:100710004D4100902046641E0028DFDC019B0098BC
:100720002946324607B0F0BD10B5202A04DB014649
:10073000203A9140002010BD914020239C1A03468E
:10074000E3401943904010BD10B5202A06DBCB17BB
:100750000846203A1041C1170B4306E00B461341EF
:10076000D0402024A21A91400843194610BD000031
:10077000F7B5009C0F4600262578641C002D05D097
:1007800000F0A0F80068405DC007F5D12B2D02D025
:100790002D2D18D0641E39462046029A00F096F896
:1007A000002F04D03968A14201D100993960710548
:1007B000022400290BDA4042002803DD04F002FB8A
:1007C0000460A007FEBD012080020643E3E7002885
:1007D000F8DA04F0F7FA04600048FEBDFFFFFF7F7F
:1007E00010B5002B08DA0024401C614192185B41CF
:1007F0001A4301D14008400010BDF0B51FB482B0CB
:1008000005460C0003D0084604F0B8FA02E004F0F4
:10081000B5FA20300246009021462846FFF784FFB3
:10082000049B059A04460F4618431143084314D00D
:10083000184610431BD0009840210A1A1846059903
:10084000FFF7BCFC05460E46009A05990498FFF791
:100850006BFF084305D0012004E02046394607B06D
:10086000F0BD0020C11705430E432C4337430099C8
:100870000E986305401A7905E40A00220C43FD0A2C
:100880000A3002D500200146E9E701051019694147
:100890000C9C0D9D00196941FFF7A2FFDFE70000E6
:1008A000064C0125064E05E0E36807CC2B430C3CC3
:1008B00098471034B442F7D3FFF706FC78BA000823
:1008C00098BA000800487047D8B50008F7B582B05C
:1008D000029C00272078641C15460197302802D01E
:1008E000002D15D015E020780127641C782804D04D
:1008F000582802D0002D09D00BE0002D01D0102D7A
:1009000007D1002710252078641C02E0082500E0AC
:100910000A250026009610E000990127694308186F
:10092000020C294680B2714300908E18380486422A
:1009300001D3012001902078641C294600F019F8A9
:100940000028E9DA0398002805D0002F01D0641EA2
:1009500000E0029C04600198002806D004F032FAFE
:1009600002210160C81E05B0F0BD009930040843A3
:10097000F9E73A2800D23038202302469A43412A28
:1009800001D310463738884201D30020C043704756
:1009900070B58C180578401C6B075B0F01D103788C
:1009A000401C2A1106D10278401C03E006780E7024
:1009B000401C491C5B1EF9D12B0705D40023521E95
:1009C0000DD40B70491CFAE70378401CCB1A921C1B
:1009D00003E01D780D70491C5B1C521EF9D5A14225
:1009E000D8D3002070BD70B50446006881684907FF
:1009F00020D5816810264907002905DA8168890712
:100A000002D481683143816000F016FC05460DE098
:100A100000F012FC401B022808D9606C304360646F
:100A2000A06C01210843A064084670BD206880685E
:100A30004007EDD4002070BDF8B504460068816819
:100A40008907890F012928D10168C90702D1C16826
:100A5000090422D5816805221140102501260129AB
:100A60000FD1816802221143816021680320086050
:100A700000F0E2FB07460CE000F0DEFBC01B0228A2
:100A800007D9606C28436064A06C3043A0640120E7
:100A9000F8BD20688068C007EED10020F8BD0000D6
:100AA000F8B5044600200090206881688907890F06
:100AB000012905D10168C9072CD1C168090429D4CD
:100AC0008168154A102611400125002915D1816839
:100AD00029438160124811490068FFF745FB00E097
:100AE000401E00900028FBD100F0A6FB07460CE05A
:100AF00000F0A2FBC01B022807D9606C3043606481
:100B0000A06C2843A0640120F8BD20680068C043A1
:100B1000C007EDD10020F8BD1700008040420F0053
:100B20000000002010B5012000F0C2FA10BD10B581
:100B3000042000F0BDFA10BD00B5002200F002F85C
:100B400000BD000030B50E4B05465C7A0120012C3B
:100B500015D8587A00241C54587A8000C018456073
:100B60005D7A184608302A54587A421C5A7230303E
:100B700008703A2048702F208870CC70002030BD5B
:100B8000F01E0020F8B50025044640340095227878
:100B9000012A3BD00122227003689E68760776D432
:100BA0003F4F4E68BE4254D09E6A0F78BA401643FB
:100BB0009E620123826B1B079A421FD0012A1DD01F
:100BC000022A1BD0032A19D0042A17D0052A15D0CF
:100BD000062A13D0072A11D002688B685669760757
:100BE000760FB3420AD05369DB08DB00536100681B
:100BF00042690B7A5B075B0F1A4342610868102851
:100C000006D0112804D0122802D045E00220F8BDF9
:100C1000244A9368102809D011280AD00120000620
:100C2000034393600868102806D035E00120C00512
:100C3000F6E701208005F3E71C481B490068FFF731
:100C400093FA0A21484300E0401E00900028FBD19F
:100C500022E0986A0E78B2409043986208681028A3
:100C600003D0112801D0122816D10E498A68102805
:100C700007D0112808D00120000682438A600BE0CB
:100C800005E00120C005F8E701208005F5E7416C8B
:100C90002022114341640125002020702846F8BD20
:100CA000011000000027014040420F00000000201A
:100CB0000068006C70470000F8B500250446002865
:100CC00003D0606C002802D008E00120F8BD0020AD
:100CD000A06440210855204600F0A8F8606C10225E
:100CE000104270D12068816849076CD4616C13018F
:100CF000994302231943616481688907890F012997
:100D000005D10168C9070FD1C16809040CD4C168B5
:100D10001826B143A6683143C1602068016966683E
:100D200089008908314301612068C1683D4E314026
:100D3000C160A069E1698003C9030843216A4E03C9
:100D40003043666B012E02D00126360300E00026F8
:100D50003043E66830432669022E08D0002630432F
:100D6000266B76003043666A012E02D00BE0042623
:100D7000F5E7002928D0616C202631436164A16C1D
:100D800001263143A164A16A0E46FF3EC23E02D055
:100D9000E66A314308432168CE680643CE600126E7
:100DA000A16B3607B14213D0012911D002290FD00F
:100DB00003290DD004290BD0052909D0062907D015
:100DC000072905D010E028E0012109040843DAE7EB
:100DD00021684E69F608F6004E6121684E69278F3A
:100DE0007F077F0F3E434E612168C9680E4E314038
:100DF000814207D10020A064606C80088000401C04
:100E0000606408E0606C984310436064A06C01214A
:100E10000843A06401252846F8BD606C1043606457
:100E2000F8E700001902FEFFE7FF3F8308B50068FE
:100E30000549884207D10548826941150A43826104
:100E400080690840009008BD002401400010024065
:100E5000F8B504464069254640350E4608280BD0B3
:100E60002068C068C00709D0606C20210843606416
:100E7000002028700120F8BD082700E00C2700F0B2
:100E8000DBF9009011E0701C0FD0002E05D000F0AF
:100E9000D3F90099401AB04207D9606C0421084385
:100EA0006064002028700320F8BD20680068384284
:100EB000E9D0606C01214902084360642068C16880
:100EC00009058A0F0C21002A1AD1226A002A17D19B
:100ED0000268120714D5826853070122002B08DB31
:100EE00043688B434360606C130298431043606413
:100EF00006E0606C202318436064A06C1043A0647B
:100F0000A069002801D1206801600020F8BD000020
:100F100070B50446216800208968490721D4254618
:100F20004035297801291CD001212970E169012966
:100F300004D02046FFF7B4FD002811D1616C0A4AA5
:100F40001140FF220132114361640021A164297024
:100F500022681C21116021688A6804231A438A6070
:100F600070BD022070BD0000FEF1FFFF70B50546A8
:100F7000044640352878012807D001262E702046E7
:100F8000FFF731FD002802D00CE0022070BD2046A2
:100F9000FFF752FD002805D1616CFF220132914319
:100FA000314361640021297070BD31B500F044F90E
:100FB000009C0546601C00D0641C00F03DF9401BFD
:100FC000A042FAD338BD0000F0B500235DE0012255
:100FD0009A4014460A4057D006685F000325BD407A
:100FE000AE43AC460660DD08AD002D182E6AAE4655
:100FF0005D07EF0E0F25BD40AE4375462E62866835
:101000006546AE4386604568A5434560C46865464D
:10101000AC43C4609D081F4CAD002D19AF689C0700
:10102000260F0F24B440A4463C400927FF06B842CF
:1010300001D1002714E0184FB84201D101270FE079
:10104000164FB84201D102270AE0154FB84201D12C
:10105000032705E0134FB84201D1042700E005271C
:10106000B740A74210D1AE686446A643AE600E4CAE
:10107000256895432560656895436560A568954337
:10108000A560E5689543E5605B1C0A46DA409ED1A1
:10109000F0BD0000000001400004004800080048C6
:1010A000000C004800100048000401407047000098
:1010B00010B504494A69024202D04861FFF7F6FFC1
:1010C00010BD000000040140F8B5002393E0224663
:1010D00001249C40A44622407ED04C68022C01D0C2
:1010E000122C0CD1DC08A40027183C6A5D07ED0E19
:1010F0000F26AE40B4430E69AE4026433E620568FB
:101100005E000324B4400F79A543BF07BF0FB7406B
:101110002F4307604D68012D05D0022D03D0112DFE
:1011200001D0122D0ED18568CF68A543B7402F435B
:10113000876047686546AF430D79ED06ED0F9D402A
:101140003D434560C568A5438C68B4402C43C460EA
:101150004C68E4004ED52B4CA56901263543A561AA
:10116000A4699D0834400094274CAD002F19BC6839
:101170009D072E0F0F25B540AC430925ED06A8426B
:1011800001D1002514E0214DA84201D101250FE035
:101190001F4DA84201D102250AE01E4DA84201D1EF
:1011A000032505E01C4DA84201D1042500E00525DA
:1011B000B5402543BD60194C25684E689543F6033C
:1011C00000D51543256065684E689543B60300D584
:1011D00015436560A56800E00CE04E689543F60293
:1011E00000D51543A560E5684E689543B60200D565
:1011F0001543E5605B1C0A681446DA4000D066E7D8
:10120000F8BD00000010024000000140000400484A
:1012100000080048000C004800100048000401408D
:101220000069084000D001207047002A01D0816188
:1012300070478162704700000148006870470000F5
:101240001C01002070B5040005D025466035687A81
:10125000002802D006E0012070BD00202872204640
:1012600001F0C0FF24206872206801684908490025
:101270000160204602F09CFE0128EDD0606A002843
:1012800002D0204602F0F4FD206841680922D20213
:1012900091434160206881682222914381602068E7
:1012A000816808221143816020680168012211438E
:1012B0000160204602F042FE70BD70B50246403229
:1012C0005378202B1CD11378012B19D001231370D4
:1012D00024245470046825689D43256004682568AB
:1012E0001E03B5432560046825680D43256000682A
:1012F000016819430160202050700020107070BDFB
:10130000022070BD70B5024640325378202B1BD1AD
:101310001378012B18D00124147024235370036810
:101320001D68A5431D6005682B680F263602B34370
:1013300009021943296000680168214301602020E7
:1013400050700020107070BD022070BD70B5040098
:1013500006D02546403568780026002802D005E0F2
:10136000012070BD2E70204600F082F924206870A4
:10137000206801684908490001600F21606809067A
:1013800088432168086121688A680120C00382437C
:101390008A60E1680129A16808D0212292021143E4
:1013A00022689160E168022902D005E00143F7E775
:1013B00001212268C902516021684A680F4B1A4313
:1013C0004A602168CA688243CA606169206908432B
:1013D000A169090208432168C860216AE0690843DD
:1013E0002168086020680168012211430160666479
:1013F000202068702663AE70002070BD008000025F
:10140000FFB50446002083B02546403501906A7838
:10141000202A7FD122689269D24312047AD52A7891
:10142000012A77D001222A7024226A7060648F0515
:10143000BF0DE06801280BD00520C002012138183B
:101440008902884321684860FFF7F6FE064612E0ED
:101450003148F3E70698401C0DD00698002805D0C7
:10146000FFF7EAFE811B0698814204D920206870AC
:101470000020287043E020688169C943890606D5A9
:101480008069C043C00602D56878A028E2D12068F0
:101490008069069BC043C00600960ED5002220211D
:1014A000204601F0BDFF002829D121682020C86115
:1014B00068700020287007B0F0BD0022202120466F
:1014C00001F0AEFF00281AD120681021C161206808
:1014D0002021C1610198411C01910599884214D1D4
:1014E0002068416801229203114341600096002266
:1014F00020212046069B01F093FF002802D0032004
:10150000D9E707E021682020C86101990598814248
:101510008FD3ABE70220CEE700200002FFB50546DF
:1015200004464035687883B0202876D10C9800288E
:1015300074D00D98002871D0287801286DD0012032
:101540002870FFF779FE0746012200901923D10386
:10155000204601F065FF002853D12120687040200B
:10156000A870002666640C9860620D9860856663BA
:101570000E980090019704A90EC9204601F008FFBB
:10158000002804D0606C2E7004286AD039E0608D89
:10159000FF2805D9FF22228501231B06009606E0BD
:1015A000608D20850096208D0123C2B25B06204607
:1015B000049901F023FF3A4620460E9901F07BFF83
:1015C000002803D0606C04284BD01AE0606A411CEC
:1015D0006162216800788862608D401E6085208D80
:1015E000401E0004000C208524D1608D002821D0ED
:1015F00000970022802120460E9B01F011FF002859
:1016000002D0032007B0F0BD608DFF2807D9FF226C
:10161000228501231B06009608E024E021E0608D6E
:1016200020850096208D0123C2B25B0620460499D6
:1016300001F0E4FE608D0028BDD13A4620460E99A7
:1016400001F012FF0028BDD120682021C16120686F
:101650004268064B1A4042606970AE702E700020DE
:10166000D0E70120CEE70220CCE7000000E800FE32
:1016700000B500680E4987B0884216D103200002E9
:101680000090122001210190032002910491039007
:1016900069460848FFF718FD0748C2690121490556
:1016A0000A43C261C0690840059007B000BD000050
:1016B00000540040000400480010024070B50400CF
:1016C0000FD021681348086021681348086003CCD4
:1016D00041602068083C21688860FFF7ADFD054641
:1016E00008E0012070BDFFF7A7FD401B272801D9A6
:1016F000032070BD2068C0680028F4D1206802690A
:10170000E1688A4201D0016101E0044901600020E2
:1017100070BD0000CCCC000055550000AAAA000006
:10172000006802490160002070470000AAAA00007A
:1017300002480168491C0160704700001C0100203C
:1017400010B506480168102211430160002000F026
:1017500007F800F041F8002010BD00000020024012
:1017600000B5014687B00022112000F05BF811207F
:1017700000F04EF81348C26910210A43C261C069E3
:101780000840059004A9684600F038FF00F058FFB3
:101790000D49FEF7E9FC0E490C4A0A600D4A401E4D
:1017A000CA604860002008618860084601F034FC87
:1017B000002802D0012007B000BD054801F047FC19
:1017C000F9E700000010024040420F000010004006
:1017D000AC1A0020E703000008B50C48816901221B
:1017E0001143816180691040002200901146501F12
:1017F00000F018F803210022481F00F013F803211D
:101800000022081F00F00EF808BD00000010024082
:10181000C106C90E012088400149086070470000D8
:1018200000E100E010B501F0BBFF10BDBFF34F8F2A
:1018300004490348C860BFF34F8F00BFFDE70000B5
:101840000400FA0500ED00E010B50C0606D54906C7
:10185000490E1C2461430818283004E01C2461430D
:101860000818FF30093099B2002A06D0012282728E
:10187000C180190C0181002010BD0022827281807C
:10188000F9E71C224A43121810B5FF30FF3002302E
:10189000926BC06902F091FE10BD1C224A431218DF
:1018A00010B5FF30FF32FF30013202309269C0695B
:1018B00002F0DEFE10BD0000F0B54A06520E1346DF
:1018C0001C256A43CC091218002C01D0283201E0F3
:1018D000FF32093204461370C909FF345170E134F4
:1018E000217A01293DD001212172957A494B002DA1
:1018F0004949557837D0002D05681678AC465BD03D
:10190000B600AD5B6F0404D5444F0D403D436746C0
:10191000BD5305681678AC46B600AD5B6F0605D5BD
:101920003C4F0D4040373D436746BD531578066830
:10193000AF00F55B0D4039490D43F553364F117833
:1019400030373D40066889001D4375521178334A8F
:1019500000688900F13A15401D434552002020726D
:10196000F0BD0220F0BD002D05681678AC4610D001
:10197000B600AD5B6F0605D50D40264940310D43DD
:1019800061468D5305681078234A8100685A3032C9
:101990000EE0B600AD5B6F0404D50D401F490D434A
:1019A00061468D53056810781C4A8100685AF13AE7
:1019B000104018436852D1E7B600AD5B6F0404D500
:1019C000164F0D403D436746BD5305681678AC463B
:1019D000B600AD5B6F0605D50E4F0D4040373D4359
:1019E0006746BD5315780768AE00BD5B0D400949D9
:1019F00040310D43BD53094F1678F13F3D4001681A
:101A0000B6001D438D531178034A890000683032B7
:101A1000A1E70000808000008F8F000080C00000E0
:101A2000F0B54B06CA095B0E002A04D01C225A43AB
:101A30001218283204E01C224A431218FF320932DD
:101A40000024947013700346C909FF335170E133C9
:101A5000197A01291AD00121197251781A4C0029DA
:101A60001178066814D08D00715B4F0603D52140B4
:101A7000164C21437153117800688A00124C815A28
:101A80003034214010246140202414E00220F0BDB5
:101A90008D00715B4F0403D521400D4C21437153E0
:101AA000117800688A000A4C815AF13C21400124D7
:101AB0002403614064006140044C403C2143815256
:101AC00000201872F0BD00008F8F0000C080000061
:101AD00080C00000F0B54D066D0E2E461C246543F7
:101AE000CF092C18002F01D0283401E0FF3409342D
:101AF0002670C90961700146FF31E260E131E3708F
:101B00008C46097A01290DD0012261460A72E278D9
:101B10009349002A08D0012A20D0022A0DD0032A96
:101B200025D111E00220F0BD237802689B00D55A30
:101B30000D40FF35FF35023504E0237802689B0035
:101B4000D55A0D40D55212E02278036892009D5A72
:101B50000D40032149026918995208E02378026870
:101B60009B00D55A0D40012189026918D15226786F
:101B70000768B5007B5B7B497B4A0B4013433343CB
:101B80007B53A57A002D53D02578784E0B400768FB
:101B9000AD0033437B53E38850265D0803686D0036
:101BA000F65AF6182378DF0001239B02FB18F55242
:101BB000238950265D0803686D00F65AF6182378CD
:101BC000DF005311FB18F55263780768002B237868
:101BD00075D09D007B5B5E0403D5654E0B4033439F
:101BE0007B53237807689D007B5B5E0604D55E4EC1
:101BF0000B40403633437B53237805689E00AB5B34
:101C00000B405B490B43AB53564E21783036334083
:101C10000568890013436B522178554C0068890090
:101C2000F13C234013434352002061460872F0BD4B
:101C30006378002BA3881FD05D0803685026F65AEE
:101C40006D00F6182378DF0001239B02FB18F55284
:101C5000237807689D007B5B5E0604D50B404249F4
:101C600040310B437B53016820783E4C8300C85AB7
:101C700030342040202440E05D0803685026F65AA6
:101C80006D00F6182378DF003A4BFB18F552036815
:101C90005025ED5A374EEB182578B61CED00AD19DE
:101CA0005E19E3683E2B0BD9DD022D0CDB0601D15A
:101CB0006D1EADB2AB020125ED032B4307E020E022
:101CC000DD032D0CDB0701D06D1CADB2AB02338000
:101CD000237807689D007B5B5E0403D50B40244995
:101CE0000B437B5301682078214C8300C85AF13C98
:101CF0002040012424036040640060401043C85227
:101D000092E79D007B5B5E0403D5194E0B40334385
:101D10007B53237807689D007B5B5E0604D5124EDB
:101D20000B40403633437B53237805689E00AB5B02
:101D30000B400D4940310B43AB530D4E2178F13E22
:101D400033400126360373407600734005688900EE
:101D500013436B522178034C89000068303460E7EC
:101D60008F8900008F8F000080800000808100003C
:101D700080C0000004040000F0B54906490E1C2490
:101D80004C432418FF340934636122610022A261AC
:101D900003466270FF332170E133197A012908D0BC
:101DA000012119726569E1688D4204D96D1A656176
:101DB00003E00220F0BD29466261A57A002D05D01E
:101DC0006578002D19D0012D37D059E005685026CF
:101DD000765B76192578EF00324D7D1976193E290C
:101DE0003ED9CD022D0CC90637D0A9020125ED033D
:101DF000294300E0A902318042E005685026765B65
:101E000076192578EF00274D2D1F7D1976193E296B
:101E10000AD9CD022D0CCF0601D16D1EADB2AD0297
:101E20000127FF033D4306E0CD032D0CCF0701D072
:101E30006D1CADB2AD02358009E005685026765BB9
:101E400076192578EF00174D2D1F7D197153657890
:101E5000002DBBD0012D0AD012E06D1EADB2C4E73B
:101E6000CD032D0CC907C5D06D1CADB2C2E7056806
:101E70005026765B76192578EF000A4D7D1971534F
:101E8000217800688C00015B074D294001252D0356
:101E900069406D006940054D294301531A720020C5
:101EA000F0BD0000060400008FBF0000808000002D
:101EB000F0B50246FF32E132137A012B0BD0012438
:101EC0004F06CB097F0E1472002B06D01C237B43D8
:101ED0001B18283306E00220F0BD1C234B431B18BF
:101EE000FF3309339C701F70CE095E7001242403F8
:101EF0001025114B002F0BD04906C90D002E10D014
:101F000004680E4E605A304068401843605210E03A
:101F100001680B4E088830406040684018430880D4
:101F200007E00568064E685A303E3040604018436E
:101F3000685200201072F0BD80800000BF8F00004A
:101F4000BFBF0000F0B506464806400E1C214143C5
:101F50008D19EB630021AA632964012128353746D6
:101F60006970FF372870E137387A012806D0397256
:101F7000EC686869A04203D9001B03E00220F0BDB1
:101F8000044600206861A87A00280CD029783068BF
:101F90008A00825C52066A783AD54B4B002A13D0ED
:101FA000012A2DD032E0A3B2AA882969306801F055
:101FB000CAFD30685021095A09182878C2004248E1
:101FC000001F10180C526CE05022125AC900101851
:101FD000C91841183E2C0AD9E002000CE20601D1D2
:101FE000401E80B280020122D203104306E0E003CB
:101FF000000CE20701D0401C80B28002088005E09E
:102000005022125AC9001018C91844522A892BE0CC
:10201000002A02D0012A1ED025E05022125AC900FF
:1020200012182948001F081811183E2C0AD9E0027E
:10203000000CE20601D1401E80B280020122D203D0
:10204000104306E0E003000CE20701D0401C80B220
:102050008002088007E05022125A1018CA001A495C
:10206000091F51184452EA88A3B22969306801F067
:102070006AFD69781548002902D0012909D010E0CD
:10208000297832688900535A034011480343535258
:1020900007E02978336889005A5A02400D48024304
:1020A0005A52287831688200084B885A30331840D9
:1020B0001023584020235840054B403B184388527A
:1020C00000203872F0BD0000060400008F8F000071
:1020D000C080000080C0000070B504460068403039
:1020E0008088C00B02D0204601F07CFB2068403085
:1020F000818849050AD58188334A1140818020466C
:1021000000F0DAF80021204600F000F920684030A5
:102110008188490403D581882C4A11408180206838
:1021200040308188890403D58188294A1140818003
:102130002068403081880425C904002910DA01880C
:10214000A9430180BD20216800024031088020465B
:1021500000F0BEF82068403081881E4A114081801E
:10216000206840308188090517D581881A4A1140B6
:102170008180206840300188082211430180206856
:102180004030018829430180206840308088C04366
:10219000C00402D5204600F0E3F820684030818872
:1021A000890506D581880D4A11408180204600F0BE
:1021B000A5F8206840308188C90503D58188084A80
:1021C0001140818070BD0000FFFB0000FFBF0000D8
:1021D000FFDF0000FFEF0000FFF70000FFFD000041
:1021E000FFFE0000F8B500270446002807D0264669
:1021F000FF36E136707A0025002802D005E0012084
:10220000F8BD3572204600F03BF8032070720121C2
:102210000BE01C20784302191046203041720772EF
:10222000C572556395637F1CD5636068B842F0D86A
:1022300000200BE01C2242431219FF32013255727A
:102240001072D57255619561401CD56162688242F9
:10225000F0D8206840300180206840300580206838
:1022600040308580206840300582BF20226800020F
:10227000403210802034257171720020F8BD0000BA
:1022800008B500680A49884210D10A48C26901218C
:10229000C9050A43C261C0690022084000900321B9
:1022A0001F20FFF7BFFA1F20FFF7B2FA08BD00009A
:1022B000005C00400010024010B5C41DFF34FA3429
:1022C0000121E06902F0C5FAE06902F08AFA10BD66
:1022D00010B504468069002806D007480169062227
:1022E0009143016101F0FEFCFF34FF340234E069E8
:1022F00002F09AFA10BD000000ED00E0FF3010B5CA
:10230000FF300230C06902F095FA10BD0246FF327C
:10231000E132137A012B08D001231372002906D071
:102320002030017100201072704702207047006851
:10233000802140308181F5E710B5872189000A5856
:102340000146FF31ED31104602F099FA10BD0068E8
:102350004030018B0122D2031143018300207047DA
:1023600010B50446FF30FF300230C06902F0DCFADD
:10237000A069002804D003480169062211430161C5
:1023800010BD000000ED00E0F8B504460068434DC4
:10239000C00352D5E8690026C00007D4E9692804C3
:1023A0000143E961E9690140012600913C48016867
:1023B000C90510D40168821511430160FEF73CFF86
:1023C000074604E0FEF738FFC01B642824D83448D1
:1023D0000068C005F6D5286A03273F02384020D0A0
:1023E0006168394081421CD0286A2A6AB8430121B9
:1023F00009040A432A622A6A8A432A622862C007B9
:102400000FD0FEF719FF009008E0FEF715FF0099C6
:10241000411A2448814201D90320F8BD286A800767
:10242000F3D5286A6168B84308432862002E04D0B7
:10243000E869012109078843E8612078C00705D0D1
:10244000286BA168800880000843286320788007F3
:1024500006D5286B032109048843E16808432863F3
:102460002078800605D5286B102188432169084310
:1024700028632068800305D5286B80218843A169E3
:10248000084328632088400505D5286B40218843F0
:102490006169084328630020F8BD00000010024075
:1024A0000070004088130000F8B505464E480E46FF
:1024B0000068C007C00FB0420AD24B480168490803
:1024C0004900314301600068C007C00FB04270D1BD
:1024D0002878464C800705D56068F0218843A968B4
:1024E000084360602878C00753D06868012817D077
:1024F000022818D0032819D021688907002958DA42
:1025000061688908890001436160FEF795FE69688A
:102510000746012913D002291DD0032927D034E012
:1025200021688903EAE721688901E7E7616BC9034C
:10253000E4E7FEF781FEC11B2D48814223D8606885
:102540000007800F0128F4D123E0FEF775FEC11BC0
:102550002748814217D860680007800F0228F4D10D
:1025600017E0FEF769FEC11B214881420BD8606865
:102570000007800F0328F4D10BE0FEF75DFEC11BBE
:102580001B48814201D90320F8BD60680007800F15
:10259000F3D115480168C907C90FB1420BD90168C9
:1025A00049084900314301600068C007C00FB042CC
:1025B00001D00120F8BD2878400706D560680721C2
:1025C00009028843E9680843606000F049F86168DF
:1025D000084A0906090F515CC840074908600020F5
:1025E000FFF7BEF80020F8BD0020024000100240B6
:1025F0008813000044A600080000002010B5072240
:1026000002600A4A53689B079B0F43605368F0249B
:1026100023408360526807231B021A40C2600448AB
:102620000068C007C00F086010BD00000010024025
:1026300000200240014800687047000000000020B0
:102640000448054900684968044A4905490F515C36
:10265000C8407047000000200010024054A6000847
:1026600030B516A30FCB89B06C460FC417A30FCBA0
:102670000FC41A494A680C20144604401848042C18
:1026800005D0184B082C04D00C2C00D1184609B0EA
:1026900030BD9402240F6D462C5DC96A04AD090754
:1026A000090FD203695C920F022A02D0032A00D1DB
:1026B0001846FDF759FD6043E9E7000002030405F1
:1026C000060708090A0B0C0D0E0F10100102030477
:1026D00005060708090A0B0C0D0E0F10001002402A
:1026E00000127A00006CDC02FEB504460078F04E61
:1026F000F04DC00748D068680007800F01281FD040
:1027000068680007800F022804D16868C003800F42
:10271000022815D06168012919D001208004002900
:1027200001D0052917D02968B14329602968814360
:102730002960606800281BD0FEF77EFD074613E085
:102740002868800320D56068002876D01CE02868BF
:1027500030432860EDE7296801432960F7E7FEF779
:102760006BFDC01B642869D828688003F7D50BE08F
:10277000FEF762FD074604E0FEF75EFDC01B64281D
:10278000F1D828688003F7D4207880073ED56868A0
:102790000007800F14D068680007800F022804D15A
:1027A0006868C003800F01280AD0E0680028286804
:1027B0001DD0012108432860FEF73EFD07460BE0CF
:1027C000286880070BD5E068012836D107E0FEF7BE
:1027D00033FDC01B0228C6D828688007F7D52868B3
:1027E000F82188432169C900084328600EE04008A9
:1027F00040002860FEF720FD074604E0FEF71CFDC0
:10280000C01B0228AFD828688007F7D420780007BB
:1028100024D5E0690028686A11D001210843686264
:10282000FEF70AFD074604E0FEF706FDC01B02287E
:1028300099D8686A8007F7D510E036E1D1E0400802
:1028400040006862FEF7F8FC074604E0FEF7F4FC7F
:10285000C01B022887D8686A8007F7D4207804272D
:102860004007002861DA00200190E869C00008D420
:10287000E969B8060143E961E96901400120009175
:1028800001908D480168C90511D401688215114372
:102890000160FEF7D1FC009005E0FEF7CDFC009949
:1028A000401A642897D884480068C005F5D5A06808
:1028B00001280AD0002801D0052811D0286A400834
:1028C00040002862286AB84302E0286A01210843D0
:1028D0002862A068002812D0FEF7AEFC00900AE043
:1028E000286A38432862F0E7FEF7A6FC0099411AEF
:1028F0007248814275D8286A8007F5D50DE0FEF749
:102900009BFC009006E0FEF797FC0099411A6B488B
:10291000814266D8286A8007F5D40198002804D03F
:10292000E969012000078143E9612078C00635D5B7
:10293000606901280CD0401D686B24D0384368635F
:10294000686B400840006863FEF776FC074622E0AB
:10295000686B38436863686B012108436863FEF75E
:102960006BFC074604E0FEF767FCC01B022838D862
:10297000686B8007F7D5686BF8218843A169C900A7
:10298000084368630AE0B8436863F4E7FEF754FC61
:10299000C01B022825D8686B8007F7D420788006F2
:1029A00037D568680007800F032813D068680007D0
:1029B000800F022804D16868C003800F032809D063
:1029C000206A0028686B16D030436863FEF734FC39
:1029D00006460CE0686BC0031BD5206A012864D151
:1029E00017E05BE0FEF728FC801B022856D8686BD6
:1029F000C003F7D50DE0B0436863FEF71DFC064643
:102A000004E0FEF719FC801B022847D8686BC0035E
:102A1000F7D4606A002846D069680907890F02293F
:102A200043D0012636060228286805D0B043286026
:102A3000FEF702FC044633E0B0432860FEF7FCFBDF
:102A4000074604E0FEF7F8FBC01B022826D82868DA
:102A50008001F7D4E86A216B000900010843E862AD
:102A6000A16AE06A084369687B22D2039143084364
:102A70006860286830432860FEF7DEFB044604E007
:102A8000FEF7DAFB001B022808D828688001F7D57A
:102A900009E0FEF7D1FB001B022801D90320FEBD8F
:102AA00028688001F5D40020FEBD0120FEBD000095
:102AB0000000010000100240007000408813000078
:102AC00070B5040012D002212046403005464177FF
:102AD00020680168402291430160204600F064F8BC
:102AE0000021216669772977084670BD012070BDF5
:102AF000F8B5040007D0002625464035A662687F59
:102B0000002802D005E00120F8BD2E77204600F015
:102B10005FF802236B7720680168402291430160CF
:102B20000721E0680902884201D9002201E0012260
:102B300012030F273F02B84202D0884200D0A6629B
:102B4000276B002F05D1884201D9236301E00120C2
:102B50002063A168606863690843216919430843D9
:102B60000123A1695B0219400843E1690843216A16
:102B70000843A16A084321680860616B606AA36921
:102B800008431B0C0427E1683B40194308432168B4
:102B9000104348602068C1697A029143C16126668A
:102BA000012068770020F8BD10B50068064988420A
:102BB00009D1064881698214914381610920E0218D
:102BC000C006FEF701FA10BD0030014000100240BF
:102BD00000B500680D4987B0884215D10C4882695C
:102BE00081140A438261806908400590E0200090CA
:102BF00002200190002103200390029104910920FA
:102C00006946C006FEF760FA07B000BD003001401B
:102C100000100240FFB5064604464036307F0027CC
:102C200081B00D46012809D001203077FEF704FB62
:102C30000090707F012804D002279DE0022005B09B
:102C4000F0BD002D72D0039800286FD0032070775C
:102C500000202066A5630399A1870399E18720647A
:102C6000B080F0802065E0640121A068C90388423B
:102C700005D1206801680122920311430160206898
:102C80000168490603D4016840221143016007200E
:102C9000E16800028142606823D9002802D0E08FF9
:102CA00001281AD121682888C86005E02068816859
:102CB000890706D52988C160E08F401EE087AD1CDA
:102CC0000BE0049800283ED0401C06D0FEF7B4FA72
:102CD0000099411A0498814235D2E08F0028E5D14D
:102CE00036E0002802D0E08F01282ED1E08F0128A5
:102CF00003D921682888C8600CE021682878087307
:102D00000FE020688168890711D5E18F012906D974
:102D10002988C160E08F801EE087AD1C15E029780E
:102D20000173E08F401EE0876D1C0EE023E00498E5
:102D3000002808D0401C08D0FEF77EFA0099411AFE
:102D40000498814201D3032716E0E08F0028D8D1F0
:102D50002046009A049900F009FF002801D02020A5
:102D60002066A068002803D12068C16880680090B0
:102D7000206E002800D001270120707700203077D6
:102D800038465CE7FFB5044683B001202546403550
:102D90000090287F00270E4601280FD001202877B9
:102DA000FEF74AFA0190687F616801280DD0CA1FBA
:102DB000FD3A08D1A168002905D102E0022007B040
:102DC000F0BD042801D00227FAE0002E7CD005983F
:102DD0000028FBD006980028F8D0687F042801D08E
:102DE0000520687700202066059921640699E9800E
:102DF0000699A980A6630699E1870699A187E064F0
:102E000020650723E1681B02994202D8E88801285F
:102E100006D920684268012109038A43426005E01F
:102E20002068416801221203114341602068016853
:102E3000490603D40168402211430160E1686068DB
:102E4000994242D9002802D0E08F012835D121686B
:102E50003088C860E08F401EE087B61C2DE00098E7
:102E600000280ED0E08F00280BD0206881688907E9
:102E700007D53188C160E08F401EE0870020B61C76
:102E80000090E88800280ED020688168C9070AD021
:102E9000C068059908800598801C0590E888401E48
:102EA000E880012000900C98401C06D0FEF7C4F981
:102EB0000199411A0C9881426DD2E08F0028CED141
:102EC000E8880028CBD16EE079E0002802D0E08FBE
:102ED000012862D1E08F012807D921683088C860B5
:102EE000E08F801EE087B61C57E0216830780873B9
:102EF000E08F401EE087761C4FE00098002818D035
:102F0000E08F002815D020688168890711D5E18FEE
:102F1000012906D93188C160E08F801EE087B61C88
:102F200005E031780173E08F401EE087761C0020B9
:102F30000090E888002824D020688168C90720D044
:102F4000E988012912D9C068059908800598801C74
:102F50000590E888801EE880E88801280FD820685E
:102F60004168012212031143416008E0017B05988A
:102F700001700598401C0590E888401EE8800120FB
:102F800000900C98401C08D0FEF756F90199401AA1
:102F90000C99884201D3032712E0E08F0028ACD1BE
:102FA000E8880028A9D12046019A0C9900F0DEFD9E
:102FB000002801D020202066206E002800D00127A4
:102FC00001206877002028773846F8E60422044973
:102FD0000428086902D09043086170471043FBE75A
:102FE00000E000E0094910B5401E884201D90120E7
:102FF00010BD074C60610321081F00F0D1FB0020C9
:10300000A06107202061002010BD0000FFFFFF002D
:1030100000E000E07047704770B5040005D0254619
:103020002035687F002802D006E0012070BD002016
:103030002877204600F00AF802206877211D2068D2
:1030400000F0CCFE01206877002070BD7047026858
:10305000D36801210B43D360006802680A43026011
:1030600000207047704770B504460068016900256C
:10307000C9438907002915DBC168C943890711D4F1
:10308000E91E0161012020772068806980072046C1
:1030900002D0FFF7E7FF04E000F096F8204600F0CA
:1030A00094F8257720680169C943490717D4C16896
:1030B000C943490713D40421C94301610220207781
:1030C000206880698005800F204602D0FFF7CAFF84
:1030D00004E000F079F8204600F077F825772068C2
:1030E0000169C943090716D4C168C943090712D445
:1030F0000821C9430161042020772068C069800746
:10310000204602D0FFF7AEFF04E000F05DF8204655
:1031100000F05BF8257720680169C943C90617D418
:10312000C168C943C90613D41021C94301610820ED
:1031300020772068C0698005800F204602D0FFF705
:1031400091FF04E000F040F8204600F03EF82577BB
:1031500020680169C943C90708D1C168C943C907C3
:1031600004D1891E0161204600F030F82068016911
:10317000C943090609D4C168C943090605D4802199
:10318000C94301612046FFF745FF20680169C94333
:10319000490609D4C168C943490605D44021C94339
:1031A0000161204600F01CF820680169C9438906C6
:1031B00009D4C168C943890605D42021C9430161E6
:1031C0002046FFF728FF70BD7047704710B50068B4
:1031D0000249884201D1FEF7ABFA10BD0010004051
:1031E0007047000000B500680E4987B0884216D1CC
:1031F0000D488269012189030A4382618069084080
:1032000005904811009012200190012103200390A5
:103210000291049109206946C006FDF755FF07B0E9
:1032200000BD00000038014000100240FFB5064616
:1032300004466036707A83B00D46202858D1002DA0
:103240000CD00598002809D00120A1680003814214
:1032500007D12069002804D1E80702D0012007B077
:10326000F0BD307A012843D0012030720020E066A2
:1032700021207072FDF7E0FF019027464037059846
:1032800038820598788218E0788A401E78820698FD
:103290000090002280212046019B00F037FF00288B
:1032A00018D10120A1680003814202D120690028C1
:1032B00012D02168287808856D1C788A0028E3D10F
:1032C00006980090002240212046019B00F01EFF3E
:1032D000002808D00320C2E728882168C005C00D57
:1032E0000885AD1CE9E72020707200203072B6E737
:1032F0000220B4E7FEF79AFAFEE701688A69D24332
:10330000920701D400228A6200688169C943C90713
:1033100003D081690122114381617047F7B50446EA
:1033200000680E468069C043C0062CD4202725467D
:10333000403520688069C04380060FD5701CF8D0E6
:10334000002E05D0FDF778FF0299401AB042F0D95F
:103350006F700020A87028700320FEBD2168102027
:10336000C8612068C7612046FFF7C7FF2068416831
:10337000064A11404160042060646F700020A8700C
:1033800028700120FEBD0020FEBD000000E800FE08
:10339000F8B504460120164640031D46DAB2C302C2
:1033A0000090079F204600F029F83A4620460699EB
:1033B00000F081F8002803D0606C04281BD018E0CE
:1033C0002846F5B2012809D02168300A88623A46B9
:1033D0002046069900F06FF80028EDD1206885623C
:1033E0000097002280212046069B00F019F8002853
:1033F00000D00320F8BD0120F8BD000070B50568BD
:10340000049C68688905890D1204044E1143194310
:10341000304021430143696070BD0000009800FC0A
:10342000F8B51C4617460E46054611E0601C0FD045
:10343000002C05D0FDF700FF0699401AA04207D9DD
:103440002020403568700020A87028700320F8BD47
:10345000286881693046884304D00020B842E5D00E
:103460000020F8BD0120F9E770B516460D46044668
:103470001AE0324629462046FFF750FF002801D0C7
:10348000012070BD002D04D0FDF7D6FE801BA842A0
:103490000AD9616C202001436164403460700020CF
:1034A000A0702070032070BD20688069C043800632
:1034B000DFD4002070BD70B516460D4604461CE0F2
:1034C000324629462046FFF729FF002801D0012077
:1034D00070BD681C11D0002D04D0FDF7ADFE801B1F
:1034E000A8420AD9616C20200143616440346070B5
:1034F0000020A0702070032070BD20688069C04348
:103500008007DDD4002070BD0EB515481349016059
:10351000002141608160012204230C300EC0016053
:1035200041608160FF23C160C23341610361C261B8
:1035300081611838FDF7C0FB002800D0FEE710209D
:103540000090000201900004029069460448FDF7D3
:1035500019FB002800D0FEE70EBD0000002401404A
:103560004C02002010B504490448FDF7E5FA024971
:10357000491E087010BD000035000020200000200A
:10358000F0B53F4887B042690121C9040A4342614E
:1035900042690A4005924269C9000A434261426990
:1035A0000A400592426949110A43426142690A4050
:1035B0000592426949000A4342614069314F08401F
:1035C0000590092000223946C006FDF72EFE012293
:1035D00011462D48FDF729FE07204003002501264E
:1035E0006A4661C269462948FDF76EFD03206A46B6
:1035F00061C269462648FDF767FD264C0920009602
:103600006946C00602960194FDF75EFD22486A46AF
:1036100061C209206946C006FDF756FD09200295E2
:103620006946C006009701960395FDF74DFD00968B
:1036300002956946144801960395FDF745FD174824
:103640006A4661C269461048FDF73EFD04206A469D
:1036500051C269460C48FDF737FD002203210520C1
:10366000FEF7E0F80520FEF7D3F80022032106203C
:10367000FEF7D8F80620FEF7CBF807B0F0BD000043
:103680000010024004040000000400480008004844
:1036900000140048000031101A810000FAFC0000FC
:1036A00010B5124810490160114941600021816044
:1036B0000161416181610122C161C2600162FDF766
:1036C00045FE002800D0FEE700210848FDF7F5FD83
:1036D000002800D0FEE700210448FDF713FE002873
:1036E00000D0FEE710BD000000540040980200200A
:1036F0000B02000010B510480E490160FF21053192
:10370000416000210722816012020161C260012232
:103710004161520282610162416208228162072393
:10372000C261C36242630163FFF7E2F9002800D07F
:10373000FEE710BD00300140F402002010B50C4837
:103740000A490160E1214902416000218160C160B4
:1037500001618161C1610822016242614162FDF73C
:1037600071FD002800D0FEE710BD000000380140C8
:103770005803002010B500220549064800F0DEFE7F
:103780000549044801F0FFF8024801F04DF910BD69
:10379000A4000020C80900202C0100207047000070
:1037A0008307FF22DB0E9A408907090E9940002803
:1037B0000BDA0007000F0838830808489B00181828
:1037C000C36993430B43C3617047830804489B005C
:1037D0001B181868904308431860704700ED00E01C
:1037E00000E400E0F0B585B004460020694688801A
:1037F0002646203678E19A8917073F0F26D0B90070
:103800000291425A9A80998809047DD5BE490A409E
:103810000299425238461C2148430519FF350935A3
:10382000A87A0028206870D029788A00825A520429
:103830006CD55022125ACB00B44912185918515A5B
:103840008905890D00917DD0EA88BDE09A89D2066C
:1038500027D40188AE4A25461140018020685021B6
:10386000095A283508182978CA00A8495118405A19
:103870008005800D2064A16B0818A06300212046FC
:10388000FDF7FFFF30790028B4D068690028B1D176
:1038900030798021084321684031888100203071CF
:1038A00022E12546FF35028809359A809B881B0551
:1038B00019D5098A09182878C2009448001D1018E3
:1038C000085A294683059B0DAB61AA88E43120681C
:1038D00000F024F920688C4A0188114001802046BC
:1038E000FEF72AFD00E1694689880904D8D5864992
:1038F000864F0A40028020685021095A3F1D09184E
:103900002878C000C01902E085E03DE04FE0085A89
:1039100083059B0DAB6108D0AA882969206800F057
:10392000FDF8A96928694018286100212046FDF7A3
:10393000B4FF206801464030008A4018C119E86889
:103940003E2800E044E00AD9C202120CC00601D1B0
:10395000521E92B290020122D203104306E0C2032B
:10396000120CC00701D0521C92B29002088021684C
:10397000684A08881040012212035040520050400B
:10398000654A10430880AFE05021095A0A18297887
:10399000CB005E49091D5918515A8905890D0091BE
:1039A00021D0AA882969009B00F0B8F81BE05022BA
:1039B000CB00125A55491218091D5918515A890538
:1039C000890D009104D02A892969009B00F0A6F88E
:1039D000297820688A004E4B815A803319404E4B1B
:1039E000403319438152A96900980818A8612969D0
:1039F00000980A182A616B69002B03D0E9680098C7
:103A0000814204D929782046FDF747FF03E0297851
:103A10002046FEF7B1F968468088000664D51C2070
:103A20004743206802993A4A415A3D191140029A87
:103A300028358152A87A0028206811D029788A0078
:103A4000825C52061ED55022125AC90012182F4805
:103A50000818105A83059B0DAB6124D0EA881EE03C
:103A60005021095A09182878C20028481018085A05
:103A700083059B0DAB6121D0AA882969206800F0DD
:103A800062F81BE05022125AC90012181F48001D8C
:103A90000818105A83059B0DAB6104D02A89296947
:103AA000206800F050F8287822688000184B115ADE
:103AB00080331940174BF1331943115220685021BC
:103AC000095A09182878C20010481018085A8005A9
:103AD000800DA86129690A182A616B692978002B71
:103AE00020460DD0FEF72EFA2068014640318A8824
:103AF0006B469A81120400D57DE6002005B0F0BD2A
:103B0000FDF7BFFEF0E700008F0F00000204000089
:103B10000F8F00008FBF000080800000101810B5CC
:103B2000012292025C088018002C07D002880A70DB
:103B3000120A4A70801C891C641EF7D1DA0701D072
:103B40000078087010BD101801225B1C920210B59D
:103B50005B088018002B08D04A780C7812022243A8
:103B60000280801C891C5B1EF6D110BDF8B50F4683
:103B70000B4615460092032104460022C90200F0BC
:103B80001BF82026002812D13B4600228021204627
:103B9000009500F05CF8002809D103213B46002283
:103BA00049022046009500F007F8002803D0206E57
:103BB000304320660320F8BDF8B51D4617460E4673
:103BC00004463DE0032149028E4205D1002F03D176
:103BD000017B684601700078681C31D0002D05D04B
:103BE000FDF72AFB0699401AA84229D320684168AC
:103BF000E022914341606068C11FFD390CD1012171
:103C0000A068C903884202D04911884204D12068C3
:103C100001684022914301600120A16A4003814272
:103C200007D121680A6882430A6021680A68024352
:103C30000A60012040346077002020770320F8BD1F
:103C4000206881683140B942BCD10020F8BDF8B588
:103C50001D4617460E46044633E0681C31D0002D41
:103C600005D0FDF7E9FA0699401AA84229D3206841
:103C70004168E022914341606068C11FFD390CD169
:103C80000121A068C903884202D04911884204D1A9
:103C9000206801684022914301600120A16A40032D
:103CA000814207D121680A6882430A6021680A6854
:103CB00002430A600120403460770020207703200F
:103CC000F8BD206881683046884304D00020B8429F
:103CD000C3D10020F8BD0120F9E7704710B503F00B
:103CE0001FFF10BD70B598B001243A2005940090D4
:103CF000102004900690C0020A90032080040394D0
:103D00000226079400250B90089409960C956846A6
:103D1000FEF7EAFC002800D0FEE707201490169575
:103D200001211596179514A8FEF7BEFB002800D0B8
:103D3000FEE70E480D90119513950F940DA8FEF710
:103D400023FB002800D0FEE7FEF774FC7D21C900AC
:103D5000FCF70AFAFFF746F90420FFF737F90321C9
:103D60000022081FFDF75EFD18B070BD21000200A3
:103D7000124801680122114301604168104A114054
:103D8000416001680F4A11400160016801229204FC
:103D90009143016041683F22120491434160C16A2E
:103DA00009090901C162016B074A11400163416BB6
:103DB00049084900416300218160704700100240BA
:103DC0000CB8FF08FFFFF6FE2CFEFCFF10B5024802
:103DD000FFF749F910BD0000AC1A0020F0B50268E9
:103DE0001D4B0124A4071D4D984203D0A04201D0D1
:103DF000A84203D17026B2434E683243184E194F81
:103E000098420DD0A0420BD0A84209D0164CA04237
:103E100006D0B04204D0B84202D0144CA04204D123
:103E200003242402A243CC6822438024A2434C6989
:103E3000224302608A68C2620A688262984206D09F
:103E4000B04204D0B84202D0084A904201D1096978
:103E5000016301214161F0BD002C014000040040DC
:103E60000040014000440140002000400048014063
:103E700010B5818CC90707D001684A6801235B042B
:103E80009A43836A1A434A60818C890707D501687F
:103E90004A6801231B049A43C36A1A434A60818C0F
:103EA000490707D501684A6801239B049A43036BBD
:103EB0001A434A60818C090707D501684A680123C3
:103EC000DB039A43436B1A434A60818CC90607D5CA
:103ED0000268916801231B039943836B1943916026
:103EE000818C890607D501688A6801235B039A43A0
:103EF000C36B1A438A60818C490612D503685A68DD
:103F000001210905046C8A4322435A60026C8A42EB
:103F100007D10268516803235B059943436C194339
:103F20005160818C090607D501684A680123DB04CA
:103F3000806C9A4302434A6010BD0000F8B5002629
:103F40000446C666FDF778F905461649206888429A
:103F500002D0154988421DD10068144F000709D5C9
:103F600001212B46002249052046009700F0CEF89B
:103F700000280DD12068006840070BD501212B4691
:103F8000002289052046009700F0C0F8002801D0E3
:103F90000320F8BD202060346072A07226720020D9
:103FA000F8BD00000038014000440040FFFFFF0161
:103FB000F8B504462369A268E5691A4363691020CD
:103FC0002B43002125681A432B680E46474F3B4080
:103FD00013432B6023685A6803252D03AA43E56821
:103FE0002A435A60236AA26925681A43AB680B27E3
:103FF0003F02BB431343AB603D4F25683D4B02037B
:10400000BD420AD11B6B9B079B0F20D0012B14D004
:10401000022B14D0032B1BD10DE0374FBD4210D122
:104020001B6B03273F043B4011D09B1A05D09B1A02
:1040300005D093420CD102200AE0042008E00820B9
:1040400006E02E4B9D4202D02D4B9D4200D1002018
:104050000123E769DB039F4222D100280CD002280C
:104060000DD0042813D0082817D001260A09120100
:104070000807400F10432EE0FEF7E2FA09E06168FE
:10408000204A48088018FCF76FF881B2EEE7FEF787
:10409000E7FA616840004A08F4E761684808F1E718
:1040A000002808D0022809D004280CD0082815D0F0
:1040B00001263046F8BDFEF7C3FA06E06168124AF1
:1040C000480880180DE0FEF7CBFA61684A088018AE
:1040D000FCF74AF880B22168C860EAE761684808DE
:1040E000C018FCF741F880B2E860E2E7F369FFEF3F
:1040F00000380140001002400044004000480040E9
:10410000004C00400024F40000127A00FFB581B09A
:1041100017460E4604460A9D1DE0681C1BD0002D64
:1041200005D0FDF789F80499401AA84213D92068F0
:104130000168FF22A132914301602068816849082B
:1041400049008160202060346072A07200202072DB
:10415000032005B0F0BD2068C1693046884304D013
:104160000020B842D9D00020F3E70120F9E710B5CC
:1041700085229200125852689047002010BD1346C5
:1041800010B50A46002100F019FB002010BD1346AF
:1041900010B50A46002100F0CFFB002010BD10B57D
:1041A0000446802100F09AFB0021204600F096FB97
:1041B00010BD10B5FF210522F5310A5000231A4623
:1041C000194600F0FBFA002010BD10B5FF230224B1
:1041D000F5331C5082611346C2610A46002100F08B
:1041E000ABFB002010BD10B5FF210422F5310A50B1
:1041F00000231A46194600F09FFB002010BD000066
:1042000010B50A46024903A000F0D4F8004810BDDA
:10421000200E002048494420436F6E666967000005
:104220001220088000487047C400002010B50A46DC
:10423000024903A000F0BEF8004810BD200E002087
:1042400048494420496E74657266616365000000E8
:104250000420088000487047C000002010B50A46BE
:10426000024903A000F0A6F8004810BD200E00206F
:1042700053544D6963726F656C656374726F6E69D8
:104280006373000010B50A46024903A000F092F8DB
:10429000004810BD200E002053544D333220487585
:1042A0006D616E20696E7465726661636500000001
:1042B00010B50A46024903A000F07CF8004810BD82
:1042C000200E00203030303030303030303031414E
:1042D00000000000F8B50D4604464988FF300A0A80
:1042E000FF300230130000F060FD0849050916494F
:1042F000493E46490069237C02682AE0217C022667
:104300004069002905D0C16A684688470146467061
:1043100040E0816AF8E7C9B20B0000F046FD0604F0
:10432000080F13171E2F0069227C436802E0006902
:10433000227C836869461046984712E00069227C17
:10434000C368F7E70069227C0369F3E70069237C0F
:10435000426969461846904703E00069227C8369F8
:10436000E8E7014616E0217C002907D14069416B4E
:1043700068468847F5E7217C002904D02946204675
:10438000FFF70DFFF8BD4069016B684688470722BB
:1043900001464270684600880028F3D0EA88002A67
:1043A000F0D0824200D90246684602802046FFF7DC
:1043B0000CFFF8BD70B5002300281CD00446002572
:1043C00002E06D1CEDB2641C2678002EF9D16C0061
:1043D000A41C1480CC5403225B1CCA5400245B1C14
:1043E00006E0CA545B1CDAB28C54521CD3B2401C97
:1043F0000278002AF5D170BDFF300021FF30023075
:10440000806901730846704710B50446812100F0A9
:10441000C1F8FF34FF340234A069002803D000F053
:1044200011FC0020A061002010BD000022210180AD
:1044300000487047640100200A210180004870474D
:104440009401002070B50546002405230322812134
:1044500000F09EF9102000F0F7FBFF35FF35023524
:10446000A861002803D000210173204670BD0124FB
:10447000FBE710B51346FF244322FD34D200245C31
:104480001258032C08D1147B002C05D1012414737D
:104490000A46812100F050FA002010BD70B5432378
:1044A0000022DB000D781B586026144635401BD0D7
:1044B000202D3ED14A78022A13D0032A0AD00A2A94
:1044C0000BD00B2A03D0FFF76AFE022070BD88785C
:1044D00018602EE00122194622E04888000A586040
:1044E00027E00122191D1BE04D78062D04D00A2D6E
:1044F00019D00B2D1DD11AE04B881B0A222B02D09C
:10450000212B06D00BE0CA884E2A00D94E220A4C35
:1045100005E0094CCA88183C092A00D9092221461D
:10452000FFF753FE05E0012219460831F8E78878C5
:104530009860002070BD0000A001002010B5002888
:1045400013D0C31DFF33FA335C69002C01D0002463
:104550005C61002900D01961FF210123FD310B545A
:10456000027000F0BFF8002010BD022010BD10B591
:10457000FF30FF3002300024006AFDF751FA0028B6
:1045800006D0012801D0022801D0022400E0012435
:10459000204610BD10B5FF30FF3002300024006A05
:1045A000FDF78AF9002806D0012801D0022801D0A1
:1045B000022400E00124204610BDFEB50446FF3071
:1045C000E51DE130FF35FA3513460190002908D08A
:1045D00068694269002A49D00198007F032843D0C6
:1045E00044E02646FF3681362046716F143002299A
:1045F00034D1C26881680092914207D9891A8160DA
:104600008AB219462046FFF7C2FD13E04068114602
:104610000746FBF7A9FD002913D10098874210D364
:10462000B06F87420DD2002211462046FFF7AFFD42
:104630000020B06700231A461946204600F0BEF855
:104640000CE06869C168002905D00198007F032843
:1046500001D1204688472046FFF7ABFD2878012886
:1046600004D10020287001E0204690470020FEBDC4
:1046700070B50546FF35E1352B4620331646044616
:10468000002907D058698269002A29D0287F032889
:1046900024D025E0FF21F531E01D0959FD30032923
:1046A0001ED18268C1688A420BD9511A8160C068E4
:1046B000814200D301468AB231462046FFF75FFDB2
:1046C0000EE058690169002904D0287F032801D130
:1046D000204688472046FFF786FD01E020469047A8
:1046E000002070BD10B51949C41DC861FF341849B8
:1046F000FA34184821620860022208208A60486063
:104700000020C8608861C8610A6108620846FDF738
:1047100069FD002804D0FF2125310FA000F008FB1F
:10472000002218231146206AFDF78EF85823002234
:104730008021206AFDF788F8FF23013300228121C0
:10474000206AFDF781F8002010BD0000000E002057
:10475000000C0020005C00402E2E2F5372632F753A
:104760007362645F636F6E662E630000FF30CA0978
:10477000FF3049060230490E1C23006A59430818CD
:10478000002A01D0203001E0FF300130807A7047EC
:1047900070B5FF301D46FF30023013460024006A1A
:1047A0002A46FDF797F9002806D0012801D00228F3
:1047B00001D0022400E00124204670BD10B5FF3076
:1047C000FF3002300024006AFDF7D6FA002806D038
:1047D000012801D0022801D0022400E00124204653
:1047E00010BD70B50022044640231146FFF7D0FFEC
:1047F0004025FF20113005512B4600228021204604
:10480000FFF7C6FFFF200121FD3025620155E01DA5
:10481000FF30FA308169002904D04069217942686B
:1048200020469047002070BDFF30E130417F017786
:104830000020704710B5FF21FD31095C032906D126
:10484000852189000958C969002900D088470020BE
:1048500010BD01740020704710B5FF30FF300230EA
:104860000024006AFDF752FD002806D0012801D07F
:10487000022801D0022400E00124204610BD70B5BA
:1048800004464120C0002018054600F068F8214683
:10489000FF3181310122084680304A67C2898A6728
:1048A000007AC106C90E0AD001290DD0022910D004
:1048B000C109C901204600F011F8002070BD294649
:1048C000204600F0B6F8F8E72946204600F09DF9AA
:1048D000F3E72946204600F023F9EEE710B5FF3054
:1048E000FF3002300024006AFDF7E2FA002806D00B
:1048F000012801D0022801D0022400E00124204632
:1049000010BD10B5FF30FF3002300024006AFDF703
:104910001EFD002806D0012801D0022801D0022463
:1049200000E00124204610BDFF30E130017F4177D7
:10493000042101770020704710B5FF30FF300230AE
:104940000024006AFDF7FEFA002806D0012801D0F5
:10495000022801D0022400E00124204610BD0A787C
:1049600002704A784270CB788A781B02D218428053
:104970004B790A791B02D21882808A79C979090297
:104980005118C180704702460020002904D0FF3230
:10499000FF320232516170470220704710B5852204
:1049A000920012580224002A04D01268904700286E
:1049B00000D10024204610BD70B50E468978194DEF
:1049C00004462970012904D931462046FFF7E7FB48
:1049D00070BD2046FF30E130027F022A15D0032A45
:1049E000F2D1002917D0606888420AD0C1B22046AF
:1049F000FFF7BDFB297861602046FFF7CFFF022853
:104A0000E2D02046FFF7EFFB70BD0029F9D003226A
:104A100061600277F0E70222027720466160FFF7CB
:104A2000A6FBEEE72801002010B5FFF76AFF002083
:104A300010BDF8B500220092C61DFF364C7817460F
:104A4000FA3632460125203A230000F0AEF90A3C3E
:104A5000564150410906412B2841FFF73BFC5DE0E0
:104A600004468888002818D1C888002815D188787D
:104A700017464606107F760E03280ED0BE773146C5
:104A80002046FFF7E9FE2046FFF7ADFB002E02D0DF
:104A90000220387742E03D7740E0204618E0FFF7FB
:104AA0008BFF3BE0CB88012B12D1127F022A02D070
:104AB000032A0DD104E0012201460831876013E08A
:104AC0000122011D10E0127F022A04D0032A02D025
:104AD000FFF765FB22E0C5607168002901D0032162
:104AE000C160014602220C31FFF76FFB16E004465D
:104AF0004888012812D1756009E00446107F022819
:104B000001D00328C9D14888012807D1776070698E
:104B10008268204690472046FFF765FB0098F8BD65
:104B2000F8B504460D462878E61D4006FF360027F6
:104B30000979800FFA36012809D06A783046203882
:104B4000002A38D0012A1ED0032A3DD106E0706920
:104B500029468268204690470020F8BD007F022841
:104B600017D003282CD16888002806D1002904D04A
:104B7000802902D02046FFF7B1FE7069294682687D
:104B80002046904713E0007F022802D0032817D167
:104B900004E0002918D080291AD115E0688800287F
:104BA00012D1480603D02046FFF7E1FCE5E7204696
:104BB000FFF719FB08E0007F022807D003280BD07D
:104BC00029462046FFF7EBFA3846F8BD4806FBD0E9
:104BD0002046FFF783FEF7E7C80904D04806400DDA
:104BE0000519143504E04806400D0519FF35053553
:104BF0002046FFF7BBFD002800D0012028600222DC
:104C000029462046FFF7E1FADEE770B50446FF309B
:104C1000E130007F0D4603280FD1287901280CD8F8
:104C2000852080000059826820469047E888002847
:104C300006D12046FFF7D7FA02E02046FFF7AFFA89
:104C4000002070BD7047000000487047EC0B00204A
:104C500010B50248FDF740FA10BD0000000C00201E
:104C600010B5054802F020F9002803D003480121BF
:104C70000170007810BD0000C80300201E00002055
:104C8000002910D00948012909D0022903D003299D
:104C900007D00120704701204002108003E04068E7
:104CA00000E080681060002070470000C80300200A
:104CB000F8B51D4616460F4600240AE06002C219E8
:104CC0003119064804F098F9002801D00120F8BDF8
:104CD000641CAC42F2D30020F8BD0000C8030020E1
:104CE00005480068002801D00020704703480121D2
:104CF0000170007870470000C80300201E000020EB
:104D0000F8B51D4616460F4600240AE06002C21997
:104D10003119064804F068FC002801D00120F8BDD4
:104D2000641CAC42F2D30020F8BD0000C803002090
:104D3000FEE700000FB410B503A9044B044A029823
:104D400000F054F810BC08BC04B01847FD68000817
:104D50003C0200200FB410B504A9074B02AA039827
:104D600000F044F8044602A9002000F079FA204639
:104D700010BC08BC04B01847615200082021020C86
:104D800001D010211046020A01D01046083902094C
:104D900001D01046091F820801D01046891E420822
:104DA00001D0881E7047081A704730B47446641EDC
:104DB0002578641CAB4200D21D46635D5B00E3189E
:104DC00030BC1847004870474802002002E008C87D
:104DD000121F08C1002AFAD170477047002001E075
:104DE00001C1121F002AFBD170470000FFB591B02E
:104DF0000F460546002606E025280AD0149A139986
:104E000090476D1C761C28780028F5D1304615B0E7
:104E1000F0BD002400940121F34A029400E0044311
:104E20006D1C2B780846203B98401042F7D128781B
:104E30002A280ED0022128780246303A092A15D8AD
:104E4000009A0A235A43303A80180C436D1C009094
:104E5000F1E701CF0090002805DA01204003044368
:104E6000009840420090022004436D1C28782E28B0
:104E700015D10420044368786D1C2A280AD101CF7B
:104E80006D1C02900BE002990A2251433039401800
:104E90006D1C02902878014630390929F3D9287809
:104EA0006C2810D006DC4C281AD068280ED06A284E
:104EB00017D104E0742813D07A2812D110E0012011
:104EC000400504430CE00121090501E00321090527
:104ED0000C436978814203D10120000524186D1C20
:104EE0006D1C287803906E281ED00CDC632831D00E
:104EF00004DC00288AD0582811D1B2E064287BD085
:104F000069280CD178E073282DD004DC6F2870D08C
:104F1000702804D1A7E075286CD078286BD0149A3B
:104F200013999047761C62E06002400F022807D078
:104F300003280AD0042838680AD006603F1D56E0CE
:104F40003868F11706604160F8E738680680F5E7D1
:104F50000670F3E73878694608740020487404A89E
:104F60000390012003E0386803900020C0433F1DF8
:104F700061070FD5002101E00199491C029A0191B6
:104F8000914213DA8142F7DB019A0399895C002987
:104F9000F2D10BE0002101E00199491C019181420D
:104FA000FADB019A0399895C0029F5D101990098EF
:104FB000139A401A00902146149B00F03BF9019986
:104FC0008019461807E0039803990078491C03915B
:104FD000149A139990470198401E0190401CF2D1F9
:104FE0002146149B139A009800F014F986196D1C41
:104FF00009E741E033E034E00A2000210490059104
:105000006002410F022905D001CFC217944603293F
:1050100005D007E0FF1DFF08FF0003CF06E000B248
:10502000C2179446042902D140B2C1178C4600220F
:105030006146944506DA0A460021404291418C4679
:105040002D2102E0210504D52B216A46117601218C
:1050500003E0E10701D02021F7E7019154E00A20A5
:105060000BE0102009E010200490002104200443EC
:1050700008200591029003E008200021059104908A
:105080006002410F022905D001CF00229446032976
:1050900006D006E0FF1DFF08FF0003CF8C4603E0AB
:1050A00080B2042900D1C0B20021019121072BD583
:1050B0000399702906D0049A1021059B4A401A438F
:1050C00005D00EE040216A461176012108E06146D4
:1050D000014306D030216A461176039951760221A8
:1050E0000191049A0821059B4A401A430CD161465C
:1050F000014301D1610707D530216A4611760121AC
:1051000001910299491E02910399582904D037A1AF
:1051100003910FA90F910DE039A1F9E76146059BB5
:10512000049AFBF7D1FA039B8C469B5C0F9A521EA4
:105130000F92137061460143F0D10F9807A9081A26
:1051400020300390600704D50120000484430298B6
:1051500001E0012002900399884201DD401A00E03D
:10516000002041180290019809180098401A0090F8
:10517000E00306D42146149B139A009800F05AF8D5
:1051800086190020049008E006A9085C149A139977
:1051900090470498401C761C049001998842F3DBE8
:1051A000E0030CD52146149B139A009800F042F8B6
:1051B000861904E0149A302013999047761C0299BE
:1051C000481E02900029F5DC08E00F980F9900783E
:1051D000491C0F91149A13999047761C0399481E05
:1051E00003900029F1DCFBE609280100303132335D
:1051F0003435363738396162636465660000000013
:1052000030313233343536373839414243444546FC
:1052100000000000F8B5044600251E461746880425
:1052200004D405E039462020B0476D1C641EF9D532
:105230002846F8BDFFB50446002581B01E46C803C8
:1052400001D5302700E02027880404D505E0384642
:105250000399B0476D1C641EF9D5284605B0F0BD12
:105260000A68531C0B60107070470000074C02E086
:10527000212002F0CDFB20680028F9D000F008F8CA
:1052800002F024F9212002F0C3FBF9E7F800002026
:1052900070B5064D0024A001E1B2401902F08EF96C
:1052A000641C0F2CF7DB00F003F870BD201B0020FE
:1052B000F8B5154D00202854401C0F28FBDB0F21AA
:1052C000114804F053FA114D0024A70178190A235C
:1052D00001220F4902F086F90B48005DFBF7A0F9A7
:1052E00000220C4BFBF7BCF806460091E859FBF78F
:1052F00097F93246009BFBF701F8FBF79FF9641C16
:10530000E8510F2CE1DBF8BDE01E0020201B00203F
:10531000FF0000200000F83F70B504461D4801233F
:1053200000781D4A0021555C002D00D00023491C47
:105330001029F8DB002B0FD0002004F095FA202173
:10534000002004F013FB1548012306C814A004F044
:105350009FFB04F011FB70BD002C04D0411E0F29EF
:1053600008DD0F2007E0411C0F2901D9002002E0D1
:10537000401C00E0401EC0B2115C0029ECD002F0DD
:10538000EDF902F083FF0B4800F03BFD0A4800F006
:1053900023FD70BD28190020C016002094000020B5
:1053A0006E6F2076616C69642070726F66696C65DF
:1053B000732100007C1400205412002070B50446B4
:1053C000FF30FF30002202300271521E026320467D
:1053D00002F0ABFA002801D0032070BDFF20FF309F
:1053E000005B1049884201D0022070BD2046373052
:1053F000FAF76CFF3621095D000208430A4D0002EE
:10540000A8420AD020465330FAF760FF4034A17C0E
:10541000000208430002A84201D1002070BD012013
:1054200070BD000055AA00000046415400E0401C39
:105430000278002A01D08A42F9D1D0B27047FF30F9
:1054400010B5FF300230446A0068241DFF30FF3081
:1054500002308278480A1146FAF786FE02CC00290B
:1054600004D0884204D3401A241DF7E7002010BD61
:105470002168081810BDFF30FF3002308269891E94
:10548000921E8A4201D8002070478278C06A4A433F
:1054900010187047F3B50C78BF2004400D20641E2F
:1054A0004443002681B00F4601251548805DC1198F
:1054B0004878097800020843002D0DD000F0FCFF69
:1054C0000546202C18D261000198641C405A00F057
:1054D000F3FFA84210D102E00A4988420CD1761CA1
:1054E0000D2EE2D33878400608D5002D06D001985D
:1054F0006100405A002801D00020FEBD0120FEBD01
:1055000086B00008FFFF000030B5044600200346C7
:105510000EE0020AE55C000202436A401006000F3A
:1055200050400203424092B21006C00C50405B1C37
:105530008B42EEDB30BD484000218922030600D5B6
:1055400050404006000E491C0829F7DB7047000058
:10555000F3B581B0019C0F46FF34FF3402340029BB
:1055600006D0019801F064FA022809D20120FEBD9C
:105570002669002E02D0A069B04207D8012605E0B6
:10558000411CF4D0A1698142F1D83E463546A0695C
:105590006D1CA84202D80225022E0BD32946019881
:1055A00001F046FA002807D0411CE0D00128DED0E7
:1055B000B542ECD10020FEBD114A2946019803F006
:1055C00089F8002808D1002F0BD02A4639460198C7
:1055D00003F080F8002804D001280DD001252846CA
:1055E000FEBD25616069411CF9D0401E6061607993
:1055F000012108436071F2E70025ED43EFE7000069
:10560000FFFFFF0FF3B585B006990D6800E06D1C34
:1056100029782F29FBD05C29F9D0FF30FF300230E8
:1056200003900024C7692646A85D761C202818D35D
:105630002F2816D05C2814D0202C33D2012100F062
:10564000F5FE009000282DD0802805D201466CA0E0
:10565000FFF7ECFE002825D1610000987852641C09
:10566000E2E7AA19069920280A6001D2042517E06A
:10567000002515E06000C0194038C08F20280ED0EA
:105680002E280CD0002C0DD00020610078520398F9
:105690000B228069202102F041F9002606E0641EF9
:1056A000002CE7D1062007B0F0BD761C7000385AF8
:1056B0002028FAD02E28F8D0002E03D0032005434E
:1056C00000E0641E002C05D06000C0194038C08F77
:1056D0002E28F6D10020009002900820049070003F
:1056E000385A761C0190002822D0202803D02E287A
:1056F00004D1A64202D003200543F0E704990098A4
:10570000884201D2A64219D10B290FD0A64201D05E
:1057100003200543A6420BD8082000900B200490DC
:10572000029826468006000E0290D8E70320054323
:10573000039880690178E5293CD03DE001988028F4
:105740000FD3002100F072FE0190002804D02F49F1
:10575000081880380078019002200543019800283D
:1057600005D001462AA0FFF761FE002804D05F2083
:1057700001900320054314E001984138192804D80A
:1057800002980221084302900BE001986138192821
:1057900007D802980121084302900198203880B26E
:1057A0000190039901988A69009950540098401C0F
:1057B000009094E70521017004980828029802D10E
:1057C0008006000E02900007800F032803D0029984
:1057D000C943890701D102210D43A9070AD40299BF
:1057E0008907890F012901D110210D43012801D119
:1057F0000820054303988069C572002053E7000024
:10580000222A3A3C3E3F7C7F0000000006B00008A0
:105810002B2C3B3D5B5D0000F1B582B0002102986E
:1058200000F025FA002862D1029EFF24FF36401EB8
:10583000FF360094023630843169306802F075F822
:10584000070053D175692878002809D0E97A8906BC
:10585000890EE52840D00A0704D50F293CD106E07F
:10586000042743E00F2902D0002C1DD023E0F26969
:10587000002A35D0410606D5697B0091BF2108403A
:10588000F18804463184A0420BD1697B00988142A3
:1058900007D129461046FFF7FDFD002801D0641E00
:1058A00000E0FF24E4B21BE0284604F00FF90146B3
:1058B000009881421AD0B069C17AC9070CD10A2177
:1058C00001E0491E06D32A780378401C6D1CD21AC9
:1058D000F7D001E0002A09D0FF240020C043308423
:1058E0000021029800F004F80700A5D03846FEBD5C
:1058F000F8B5C41DFF34FA34E6880F46761C300430
:10590000000C35D02069002832D031076CD1401C02
:105910002061E168002924D0374B206832091B5CE4
:105920005B1E1A4260D101F083F80546012823D995
:10593000681C3BD043212068C9000958A9424DD8B2
:10594000002F15D0E168FFF703FE050012D0012DEE
:1059500012D0681C2AD0206804F00FF9002825D145
:105960000CE02068FF30FF3002300089B0423BD8A5
:105970000420F8BD0720F8BD0220F8BD0122520224
:105980000021206801F0CAFF29462068FFF773FD57
:105990002168FF31FF3102310027086310E0012147
:1059A0000171206804F0E9F8002801D00120F8BD59
:1059B0002068FF30FF300230016B491C7F1C0163FF
:1059C0002068FF30FF3002308178B942E7D8216883
:1059D000FF31FF310231096BC91B0163E5602946C4
:1059E0002068FFF748FD2061E68031072068C90D77
:1059F000401860610020F8BD02020000F3B581B0DC
:105A0000019DFF24FF350426FF350094023571E027
:105A1000286801F08AFF060071D1686901780029C1
:105A200010D0C27A9206920EE52909D02E2907D00D
:105A3000DF231340082B07D00027029B9F4205D08D
:105A4000FF2446E004265AE00127F6E70F2A02D099
:105A5000002C4BD144E04A0606D5427B0092BF227F
:105A60001140EA880C462A84A14230D1427B009939
:105A70008A422CD1E9690D228C46017800268906DC
:105A8000890E491E514301221F4B9B5D1F187B78D5
:105A90003F781B023B431F46002A07D0202916D21D
:105AA0001A464F006346DA53491C02E0174B9F42E7
:105AB0000DD1761C0D2EE7D30078400605D52029A0
:105AC00005D200204A0061468852641E00E0FF248F
:105AD000E4B200210198FFF70BFF06000AD00EE0A8
